:020000040800F2
:1000000000040020570300083D1300083F130008B8
:1000100043130008471300084B13000800000000BA
:100020000000000000000000000000004F13000866
:100030005113000800000000531300085513000876
:10004000770300087703000877030008E1C9000878
:100050007703000877030008870F0008770300087C
:100060007703000877030008770300087703000888
:100070007703000877030008770300087703000878
:100080007703000877030008770300087703000868
:10009000770300087703000877030008AD0F000816
:1000A0007703000877030008770300087703000848
:1000B0002D0F000877030008770300087703000876
:1000C0007703000877030008770300087703000828
:1000D00077030008E9120008770300087703000897
:1000E0007703000877030008770300087703000808
:1000F00077030008770300087703000877030008F8
:1001000077030008B74E000877030008770300085C
:1001100077030008770300087703000877030008D7
:1001200077030008770300087703000877030008C7
:1001300000F002F800F06DF80AA090E8000C82448C
:100140008344AAF10107DA4501D100F062F8AFF269
:10015000090EBAE80F0013F0010F18BFFB1A43F0A5
:1001600001031847ACAE0100CCAE01000A444FF0C9
:10017000000C10F8013B13F0070408BF10F8014B06
:100180001D1108BF10F8015B641E05D010F8016B4B
:10019000641E01F8016BF9D113F0080F1EBF10F8AF
:1001A000014BAD1C0C1B09D16D1E58BF01F801CBD2
:1001B000FAD505E014F8016B01F8016B6D1EF9D555
:1001C0009142D6D37047000000230024002500266A
:1001D000103A28BF78C1FBD8520728BF30C148BFAA
:1001E0000B60704764290CF0158575290CF0128599
:1001F00078290CF0498563290CF0EA8673290CF004
:10020000EF86002070471FB50DF006FD1FBD10B52D
:1002100010BD0CF01FFF1146FFF7F5FF00F035FA97
:100220000CF03DFF03B4FFF7F2FF03BC00F0F6FF54
:1002300000210020434A126842F48032414B1A6088
:1002400000BF404A126802F40030491C10B9B1F5F1
:10025000A06FF6D13B4A126812F4003F01D0012092
:1002600000E00020012843D1374A126842F0100212
:10027000354B1A601A46126822F003021A601A46B9
:10028000126842F002021A602E4A52682D4B5A60E0
:100290001A4652685A601A46526842F480625A609E
:1002A0001A46526822F47C125A601A46526842F486
:1002B000E8125A601A46126842F080721A6000BF53
:1002C000204A126812F0007FFAD01E4A526822F0CB
:1002D00003021C4B5A601A46526842F002025A60EE
:1002E00000BF184A526802F00C02082AF9D101E056
:1002F00000BFFEE7704710B5FFF79AFF10BD10B5BD
:100300001048006840F001000E4908600846406847
:100310000E4908400B494860084600680C490840EF
:10032000084908600846006820F4802008600846F4
:10033000406820F4FE0048604FF41F008860FFF71B
:10034000DAFF10BD00100240002002400000FFF85C
:10035000FFFFF6FE70470B4880470B4981F3088882
:100360000A480047FEE7FEE7FEE7FEE7FEE7FEE796
:10037000FEE7FEE7FEE7FEE705480649064A074BAB
:100380007047000055030008F850002031010008B4
:10039000F8480020F8500020F84C0020F84C0020CD
:1003A000002109E0002201E0531C9AB242F6140336
:1003B0009A42F9DB4B1C99B28142F3DB704700B5DE
:1003C000FF48007880B3FF48006870B1FE480068BD
:1003D00058B1FE48006840B1FD48006828B1FD48AA
:1003E000006810B1FC480068F0B90A20FFF7D8FF98
:1003F0000020F3490870F348006808B9012000BDE7
:10040000F148006808B90220F9E7F048006808B927
:100410000320F4E7EE48006808B90420EFE7ED4850
:10042000006810B90520EAE704E0EB480068D8B995
:100430000620E4E7E3480068012815D1E248006897
:10044000012811D1E148006801280DD1E048006879
:10045000012809D1DF480068012805D1DE4800687D
:10046000012801D1D64908700020C8E71CB5012138
:10047000412005F0A4F80021042004F001FF012030
:10048000009000208DF804000C208DF8050001205C
:100490008DF80600684600F06EFF0121092005F086
:1004A0008EF80521012004F0EBFE202000900020B2
:1004B0008DF804000C208DF8050001208DF8060051
:1004C000684600F058FF1CBD0EB50121084605F036
:1004D00083F84FF0804000F0DDFF4FF0804001F0E6
:1004E000E0FA4FF47A70ADF804004720ADF8000050
:1004F0000020ADF80600ADF8020069464FF08040DC
:1005000001F02AF80121880701F043FD00214FF096
:10051000804001F08AFB01221146900701F0A2FA07
:100520000121880701F083FA0EBD10B501210846AC
:1005300005F038F8A94805F075FEA948A9490860F2
:10054000A94848601020886042F6A000C8600020DA
:1005500008618020486100208861C86108624FF40A
:1005600000504862002088629C4805F0FAFE10BDE9
:1005700008B50121582005F022F82020ADF8000030
:1005800004208DF803006946984804F075FD4FF487
:100590000050ADF8000048208DF8030069469448EB
:1005A00004F06AFD1F20ADF8000048208DF803001C
:1005B0006946904804F060FD08BD08B5012121207E
:1005C00004F0FDFF4FF44150ADF8000010208DF80D
:1005D000030003208DF802006946874804F04CFDB3
:1005E00008BD08B500214FF0006004F0A9FC4FF4ED
:1005F000A06004F065FC17208DF8000001208DF844
:10060000010000208DF8020001208DF803006846EB
:1006100004F05BFC06208DF8000002208DF801003C
:1006200000208DF8020001208DF80300684604F0D8
:100630004CFC31208DF8000003208DF801000020D3
:100640008DF8020001208DF80300684604F03DFC9F
:100650001C208DF8000003208DF8010001208DF88A
:1006600002008DF80300684604F02FFC03208DF88B
:10067000000000208DF801008DF8020001208DF8A7
:100680000300684604F021FC08BD86B04FF0000965
:1006900000255A4806685A48D0F8EC775948D0F8EF
:1006A0000080FFF72CFEFFF79CFF00F0E5FD4FF404
:1006B000E13000F001FEFFF780FFFFF759FFFFF781
:1006C00034FF0BF025FFFFF7FFFE01F0B6FDFFF74B
:1006D000CDFE4FF4FC604C49088000204B49088057
:1006E0004BA00CF039FA43463A46314651A00CF083
:1006F00033FA5BA200213C2001F068FF0CF013F9F3
:10070000002006F059FA58A200217C2001F05EFF7B
:1007100059A20F21AA2001F059FF4FF4FC6359A2FE
:100720001E21002001F0BAFF4FF4FC6356A21E21E7
:10073000482001F0B3FF4FF4FC6354A21E21942023
:1007400001F0ACFF4FF6E07351A22C21002001F024
:10075000A5FF01205449086006F0A2FA5349087029
:100760000846007828B10846017851A00CF0F4F949
:100770000AE054A00CF0F0F95BA24FF48C71002059
:1007800001F024FF00BFFEE700250DE0294659A037
:100790000CF0E2F92A46FF214448007806F089F877
:1007A00006F0D0FA681CC5B2032DEFDB0022FF2152
:1007B0003E48007806F07DF851A00CF0CDF9ABE092
:1007C0003E00002034012242000123420401234262
:1007D000080123420C01234210012342440002403D
:1007E0000438014088450020A8150020000C014075
:1007F000001001400018014000140140E8F7FF1FFD
:1008000000F0FF1FF0F7FF1F5400002056000020EB
:100810003C2D2D2D2D2D202053544D333220455667
:1008200042205445535420202D2D2D2D2D3E0D0AB0
:1008300000000000556E6971756520446576696336
:10084000652049442C203936204269743A202530ED
:1008500038582C253038582C253038582E0D0A00A1
:100860003C53544D33323E0020202020A67E2020D1
:10087000A4EB2020A4E9000020203A20203A2020E8
:1008800000000000494D3A0052523A00424D3A00F1
:1008900046303C582C592C5A3E3A202020202C20FF
:1008A0002020202C00000000B48122423F000020C4
:1008B00049324320416464726573733A203078256D
:1008C000780D0A004572726F723A20493243204116
:1008D000646472657373206E6F7420666F756E64E6
:1008E0002121210D0A0000004E6F204350212121BB
:1008F0000000000050614765203A2025640D0A0081
:10090000636F6E73747275637446756E63313120F4
:1009100072756E210D0A000006F09CFBE7A00CF03A
:100920001BF907F0D5FAEBA00CF016F907F08EFED4
:10093000EEA00CF011F907F00BFFF2A00CF00CF98F
:1009400009F060F8F5A00CF007F909F097FA002219
:10095000FF21F848007805F0ACFF09F013FB09F01F
:1009600070FB0022FF21F348007805F0A2FF012070
:1009700006F022F909F032FB09F047FB102201A929
:10098000C62006F0D4F89DF8073000939DF8063095
:100990009DF805209DF80410E7A00CF0DDF89DF807
:1009A0000B3000939DF80A309DF809209DF808103F
:1009B000E1A00CF0D1F89DF80F3000939DF80E30B7
:1009C0009DF80D209DF80C10DBA00CF0C5F89DF8EB
:1009D000133000939DF812309DF811209DF81010EF
:1009E000D5A00CF0B9F801A9E0A00CF0B5F84FF6CD
:1009F000FF7300934FF49B73BE223C21002002F052
:100A00001DF94FF6FF7300935023DC223C21C820D0
:100A100002F014F9E0A23C21DE2001F0D7FD4FF6F0
:100A2000FF7300937823DC226421C82002F006F9CA
:100A3000DAA26421DE2001F0C9FD4FF6FF730093B6
:100A4000A023DC228C21C82002F0F8F8D4A28C214B
:100A5000DE2001F0BBFD4FF6FF730093C823DC22BC
:100A6000B421184602F0EAF8CEA2B421DE2001F04B
:100A7000ADFDCDA2FA21C82001F0A8FD17E1CB48B9
:100A8000807848456BD04FF6FF70C9490880C74849
:100A900090F802908288042300217C2001F0C8FE97
:100AA000C248827902230021AC2001F0C1FEBF4878
:100AB000C27902230021CC2001F0BAFEBB48007AA3
:100AC00007282FD2DFE800F0040A10161C222800A5
:100AD000B8A20F21852001F079FD23E0B7A20F21F4
:100AE000852001F073FD1DE0B6A20F21852001F0E5
:100AF0006DFD17E0B5A20F21852001F067FD11E023
:100B0000B4A20F21852001F061FD0BE0B3A20F21FB
:100B1000852001F05BFD05E0B2A20F21852001F0E8
:100B200055FD00BF00BFA148027802230F21AA2073
:100B300001F07EFE9D48427802230F21C22001F081
:100B400077FE9A48827802230F21DA2001F070FEA6
:100B5000A64800686FEA0000A549C1F89801FFF7B0
:100B60002EFC0446012C0ED1A2A00BF0F5FF0020B4
:100B7000AF4908700AF09EFC0AF0D3FC0AF007FDAA
:100B80000BF0E4F893E0062C08D1AAA00BF0E4FFE8
:100B90000120AE49087009F035FD88E0032C0BD127
:100BA000ABA00BF0D9FF0020A84908700120A04994
:100BB000087009F0C5FF7AE0042C39D1ABA00BF026
:100BC000CBFFB1A00BF0C8FF0022FF2159480078ED
:100BD00005F06FFE06F084F83DA00BF0BDFFB1A05C
:100BE0000BF0BAFF0122FF215248007805F061FEA8
:100BF00006F076F836A00BF0AFFFB2A00BF0ACFF1A
:100C00000222FF214B48007805F053FE06F068F8F9
:100C10002FA00BF0A1FF0AF0D5FD0AF0B8FC0AF0F6
:100C200080FC0AF007FD0BF0BFF80AF070FD3EE013
:100C3000052C3CD1ABA00BF08FFF0023009340F2BA
:100C40003313BB223F21032001F0E9FB02F020F81F
:100C50000122FF213748007805F02BFE0122A84829
:100C600000780F30C1B23348007805F022FE01222F
:100C7000A34800781030C1B22E48007805F019FE64
:100C80000AF039F89E4800781030C1B2294800783F
:100C900005F0CBFD824601469AA00BF05DFF0022D5
:100CA000FF212448007805F004FE09F05CFCE6E62C
:100CB00002460B46002100BF34E10000636F6E73F3
:100CC000747275637446756E6330312072756E216F
:100CD0000D0A0000636F6E73747275637446756EEF
:100CE0006333342072756E210D0A0000636F6E73DA
:100CF000747275637446756E6335342072756E2137
:100D00000D0A0000636F6E73747275637446756EBE
:100D10006331412072756E210D0A0000636F6E739E
:100D2000747275637446756E6333312072756E210B
:100D30000D0A00003F00002052454720307843361E
:100D400020636F6E742E2072656164203078257880
:100D50002C20307825782C726561642030782578D5
:100D60002C20307825782E0D0A00000046756E6321
:100D700030312051756572793A204669726D77611C
:100D80007265205265766973696F6E2049443A2511
:100D90007320200D0A0000004230000042310000A4
:100DA0004232000042330000465F23008E4800209C
:100DB0005400002053756E2E000000004D6F6E2E03
:100DC000000000005475652E000000005765642E79
:100DD000000000005468752E000000004672692E65
:100DE000000000005361742E000000009881224230
:100DF000008022424B65795F5573657220697320CC
:100E000070726573736564212121524D495F52658B
:100E10007365742829202620436C65616E20524D2D
:100E2000495F526573657428292E0D0A0000000081
:100E30003A0000204B65795F55502069732070722D
:100E400065737365642121210D0A00004D000020A7
:100E50004B65795F444F574E2069732070726573FC
:100E60007365642121210D0A000000004B65795F44
:100E70004C45465420697320707265737365642114
:100E800021210D0A000000005265676973746572C4
:100E90002044617461206F66205061676520302EA8
:100EA0000D0A00000D0A526567697374657220446B
:100EB000617461206F66205061676520312E0D0AD4
:100EC000000000000D0A5265676973746572204462
:100ED000617461206F66205061676520322E0D0AB3
:100EE000000000004B65795F524947485420697300
:100EF00020707265737365642121210D0A00000062
:100F0000F2000020466173742072656C6178207273
:100F10006174653A25640D0A00000000585C505465
:100F2000481CC1B20D29F9DB0120704710B5012121
:100F3000880701F031F8E8B10121880701F03DF898
:100F400064480088401C6349088063480088401E4C
:100F5000614908805F480088B0F5FA7F0AD15F4890
:100F600000686FEA00005E49C1F8B0014FF0000070
:100F70005849088010BD5849088000BF5649098863
:100F80000029FBD1704710B5012000F061FA60B173
:100F9000012000F06EFA53A00BF0DEFD002058494E
:100FA000087009F01BF809F030F810BD2DE9F04782
:100FB0000125022604274FF008084FF010094FF0D2
:100FC000200A00204F4908604FF0200000F040FA4E
:100FD000F0B3202000F04DFA01204A4908604A4849
:100FE0000168006800F10100474B186047A00BF052
:100FF000B3FD0022FF214F48007805F05AFC4E480F
:10100000007805F0DCFC00F00F004C490870084641
:10101000007830B1084602784748017848A00BF0C4
:101020009BFD45480078401CC0B205F0C8FC00F0AC
:101030003F04224640480178491C4BA00BF08CFD30
:101040002C4202D052A00BF087FD344204D000E0C5
:1010500030E055A00BF080FD3C4204D058A00BF0CE
:101060007BFD09F04DF814EA080F0AD00122FF2198
:101070003048007805F01DFC57A00BF06DFD09F01D
:101080000FFC14EA090F02D059A00BF065FD14EA19
:101090000A0F0AD00222FF212648007805F009FC39
:1010A00058A00BF059FD0AF00FF809F061FE00207E
:1010B00014490860BDE8F087002107E0002201E044
:1010C000531C9AB2092AFBDB4B1C99B28142F5DB17
:1010D000704770473C00002040000020B081224251
:1010E0000080224245585449305F49525148616E50
:1010F000646C65722061737365727421210D0A003E
:101100003A000020B481224234000020455854495E
:10111000395F355F49525148616E646C65725F4159
:1011200054544E2061737365727421212025640D1F
:101130000A0000003F0000209E000020390000202F
:101140004630315F524D495F44617461303A3078C6
:1011500025782C2053746174757320436F64653A4D
:10116000307825782E0D0A004630315F524D495FA8
:1011700044617461313A307825782C20696E745F4F
:101180007374617475733A307825782E0D0A0000F7
:10119000496E7420736F757263653A20466C617393
:1011A000682E0D0A00000000496E7420736F75727E
:1011B00063653A205374617475732E0D0A00000044
:1011C000496E7420736F757263653A2041627330A3
:1011D0002E20202000000000496E7420736F75726D
:1011E00063653A20416E616C6F672E0D0A00000046
:1011F000496E7420736F757263653A204C65642E76
:101200000D0A0000496E7420736F757263653A2091
:10121000427574746F6E2E0D0A000000014600BF07
:10122000704770B504460D4600BF80213D4804F06C
:10123000B4FE0028F9D0A1B23A4804F057FE204687
:1012400070BD10B5044600BF8021364804F0A5FEED
:101250000028F9D02146334804F048FE10BD10B5EF
:1012600000BF20212F4804F098FE0028F9D02D4817
:1012700004F040FEC0B210BD08B5012144F20400E4
:1012800004F09DF94FF40070ADF8000018208DF8BF
:10129000030003208DF802006946234803F0ECFEAA
:1012A0004FF48060ADF8000004208DF8030069461B
:1012B0001D4803F0E1FE08BD1FB504460094002060
:1012C000ADF80400ADF80600ADF80800ADF80C006C
:1012D0000C20ADF80A006946124804F026FD0121F1
:1012E000104804F093FD1FBD10B540F225510D4884
:1012F00004F069FE40F225510A4804F08EFE0948C8
:1013000004F0F8FDC4B2214608A00BF025FC08A0AB
:101310000BF022FC074800686FEA00000649C1F89C
:10132000B40110BD003801400008014025640000F0
:101330000A0D0000B481224200802242704700BFA3
:10134000FEE700BFFEE700BFFEE700BFFEE7704715
:1013500070477047704700000020474908604749C0
:10136000C1F804044649086001F1040108604548D9
:1013700045490860704700213F498279DAB33F4A06
:10138000D2F8002403689A433C4BC3F800241A4661
:10139000D2F8042403689A4301F104031A60027925
:1013A00011440A68036842EA03020A60334AD2F829
:1013B0000824036822EA0302304BC3F808241A46C3
:1013C000D2F80C24036822EA0302304B1A604279F7
:1013D000102A11D1294AD2F8082403681A43274B4E
:1013E000C3F808241A46D2F80C2403681A43234B86
:1013F000C3F80C240EE007E01F49427911440A6843
:1014000003681A430A6005E0027911440A68036818
:101410009A430A6070470021016001710C214171FB
:101420000021817170471A49096841EA0001134A95
:10143000C2F81014704701460020134A12680A428D
:1014400001D0012000E0002070470F49086070477C
:10145000014600200022084B1B6803EA0102074BEB
:10146000D3F814340B4202D00AB1012000E000206E
:1014700070470549086070470004014000000140C2
:1014800008040140FFFF0F00140401400C04014058
:101490001004014010B50446FB48844208D10121E4
:1014A000C01404F0A6F80021E01404F0A2F852E001
:1014B000B4F1804F08D10121084604F0A7F80021BB
:1014C000012004F0A3F846E0F048844208D101214D
:1014D000022004F09BF80021022004F097F83AE083
:1014E000EB48844208D10121042004F08FF8002148
:1014F000042004F08BF82EE0E648844208D1012154
:10150000082004F083F80021082004F07FF822E08E
:10151000E148844208D10121102004F077F800212D
:10152000102004F073F816E0DC48844208D1012151
:10153000202004F06BF80021202004F067F80AE076
:10154000D748844207D10121401404F052F8002109
:10155000601404F04EF810BD028802F08F02028081
:10156000CA884B881A4303881A4302808A88828576
:101570000A880285C44A904202D0C94A904201D1E9
:101580000A7A028601228282704770B50024002206
:101590000023058C4FF6FE7635400584028C838847
:1015A000048B4FF68F752C400D882C43751E2A40F6
:1015B0000D892A434D882A43CD888586B24DA8429D
:1015C00002D0B74DA84213D14FF6F7752A404D8986
:1015D0002A434FF6FB752A408D882A4347F6FF655C
:1015E0002B4047F6FF552B408D892B43CD892B434C
:1015F00083800483028470BD70B500240022002320
:10160000058C4FF6EF7635400584028C8388048B79
:1016100048F6FF752C400D882D0644EA15444FF618
:10162000DF752A400D892D0542EA15424D882D05AA
:1016300042EA1542CD880587934DA84202D0984DC5
:10164000A8421BD14FF67F752A404D892D0542EAED
:1016500015424FF6BF752A408D882D0542EA154286
:1016600047F6FF352B4047F2FF752B408D89AD04BF
:1016700043EA1543CD89AD0443EA154383800483CF
:10168000028470BD70B5002400220023058C4FF643
:10169000FF6635400584028C8388848B4FF68F75F6
:1016A0002C400D882C434FF6FF552A400D892D06FE
:1016B00042EA15424D882D0642EA1542CD888587BB
:1016C000714DA84202D0764DA8421BD14FF2FF7552
:1016D0002A404D892D0642EA15424FF6FF352A4031
:1016E0008D882D0642EA154246F6FF752B4045F6D9
:1016F000FF752B408D892D0543EA1543CD892D05B6
:1017000043EA154383808483028470BD70B500234F
:1017100000220024058C4EF6FF7635400584028CAD
:101720008488838B48F6FF752B400D882D0643EA8D
:1017300015434DF6FF752A400D892D0742EA1542E3
:101740004D882D0742EA1542CD88A0F840504E4DF5
:10175000A84202D0524DA84205D1C4F30D048D8990
:10176000AD0544EA154484808383028470BD828B76
:101770004FF2FF331A408283828B0B0642EA1342F8
:1017800082837047F0B50C461546002100220026E2
:10179000078C4EF6FF7C07EA0C070784818B028CCE
:1017A00027073E0C40F6FF4739402F0641EA174114
:1017B0001F0741EA17414DF6FF773A4046F480573C
:1017C0003A4381830284F0BD828B4FF6F3731A4053
:1017D0008283828B0A4382837047F0B50C4615469C
:1017E000002100220026078C4FF6FF6C07EA0C0749
:1017F0000784818B028C27063E0C4FF60C7739400C
:101800001F0545EA174739434FF6FF573A4046F45C
:1018100080773A4381830284F0BD028B4FF2FF331D
:101820001A400283028B0B0642EA1342028370477E
:10183000F0B50C461546002100220026078C4FF615
:10184000EF7C07EA0C070784018B028C27053E0C0E
:1018500040F6FF4739401F0741EA17412F0641EA8A
:1018600017414FF6DF773A4046F010073A430183BD
:101870000284F0BD028B4FF6F3731A400283028B91
:101880000A43028370470000002C0140000400401E
:1018900000080040000C0040001000400014004010
:1018A00000340140F0B50C46154600210022068C9C
:1018B0004FF6FE773E400684018B028C4FF60C7685
:1018C00031401E0545EA164631437E1E324044F043
:1018D0000106324301830284F0BD70B505460C4613
:1018E000208850B92389A28861882846FFF7DAFF4B
:1018F000E1882846FFF7BEFF25E0208804280AD1AA
:101900002389A28861882846FFF792FFE18828464C
:10191000FFF783FF17E0208808280AD12389A288CF
:1019200061882846FFF759FFE1882846FFF74CFFFA
:1019300009E02389A28861882846FFF723FFE18810
:101940002846FFF714FF70BD2DE9F04105460C460F
:1019500000260127608808B9022600E00026A0883A
:10196000012801D1022700E001272088A0B923899E
:10197000A28861882846FFF795FFE1882846FFF78F
:1019800079FF23893A4631462846FFF751FFE1881F
:101990002846FFF742FF13E02389A2886188284682
:1019A000FFF746FFE1882846FFF737FF23893A46CD
:1019B00031462846FFF776FFE1882846FFF75AFFB1
:1019C000BDE8F0810A884B881A438B881A43CB887C
:1019D0001A430B891A434B891A438B891A43A0F87F
:1019E000442070474FF6FF71818000210180C18043
:1019F0004180017270470021018041808180C18057
:101A0000018141818181C181704700210180418034
:101A1000012181800021C180018170470021018066
:101A200041808180C180018141818181704721B1E4
:101A3000028842F00102028004E0028840F2FE3394
:101A40001A400280704731B1B0F8442042F400429D
:101A5000A0F8442005E0B0F84420C2F30E02A0F83C
:101A60004420704710B51AB183890B43838104E089
:101A70008389CC43A4B22340838110BD8182704707
:101A800041EA0203A0F84830704710B51AB18389C3
:101A90000B43838104E08389CC43A4B22340838138
:101AA00010BD01894FF6F8721140018170470A4656
:101AB000002101894FF68F7319401143018170474E
:101AC00030B504460D4629462046FFF7F0FF208931
:101AD00040F00700208130BD2DE9F04104460D465D
:101AE00016461F46602D06D13B4601223146204650
:101AF000FFF79EFE05E03B46012231462046FFF7F8
:101B0000D1FE29462046FFF7D2FF208940F007008A
:101B10002081BDE8F08130B50C4600210189C9B2B1
:101B20001D0642EA154525432943018130BD2DE9B3
:101B3000F04105460E4617469846002443463A466D
:101B400031462846FFF7E7FF2C894FF6F8710C4025
:101B500044F007044FF68F710C4044F070042C8160
:101B6000BDE8F081F0B504460D4616461F463B46DB
:101B7000324629462046FFF7CEFF208940F48040B8
:101B80002081F0BD0185828270470A4600210188CC
:101B900040F28F331940114301807047F0B50C4675
:101BA00015461E460021002200230189028B038C6A
:101BB0004FF6F877394021434FF6FC473A4040F260
:101BC00001173A434FF6DD773B40370545EA1747A3
:101BD0003B43018102830384F0BD0A460021018B4F
:101BE0004FF68F7319401143018370470A46002155
:101BF000018B48F6FF731940130641EA1341018334
:101C000070470A460021818B4FF68F7319401143AC
:101C1000818370470A460021818B48F6FF73194083
:101C2000130641EA13418183704721B1028842F0D3
:101C30008002028004E0028840F27F331A40028072
:101C4000704721B1828842F00402828004E08288D9
:101C50004FF6FB731A408280704721B1828842F0B0
:101C60000802828004E082884FF6F7731A4082806F
:101C7000704721B1828842F00102828004E08288AC
:101C80004FF6FE731A40828070470A460021018B8E
:101C90004FF6F77319401143018370470A4600213C
:101CA000018B4FF2FF731940130641EA1341018380
:101CB00070470A460021818B4FF6F7731940114394
:101CC000818370470A460021818B4FF2FF731940D0
:101CD000130641EA1341818370470A460021018BB4
:101CE0004FF6FB7319401143018370470A460021E8
:101CF000018B4FF6FF331940130641EA134101836C
:101D000070470A460021818B4FF6FB73194011433F
:101D1000818370470A460021818B4FF6FF331940BB
:101D2000130641EA1341818370470A460021018B63
:101D30004FF67F7319401143018370470A46002113
:101D4000018BC1F30E01130641EA13410183704771
:101D50000A460021818B4FF67F731940114381831E
:101D600070470A460021818BC1F30E01130641EA38
:101D70001341818370470A460021018C4FF6FD73A1
:101D800019401143018470470A460021018C4FF627
:101D9000F77319401143018470470A460021018CF2
:101DA0004FF6DF731940130541EA13410184704770
:101DB0000A460021018C4FF67F731940130541EA52
:101DC0001341018470470A460021018C4FF6FF53EE
:101DD0001940130641EA1341018470470A46002165
:101DE000018C4FF2FF731940130641EA134101843D
:101DF00070470A460021018C4DF6FF731940130706
:101E000041EA13410184704730B5002301248C401E
:101E1000A3B2048CDD43ADB22C400484048C02FADE
:101E200001F5ADB22C43048430BD30B50023042449
:101E30008C40A3B2048CDD43ADB22C400484048CEE
:101E400002FA01F5ADB22C43048430BD70B50346EF
:101E5000002000241846183001258D40ACB21D8C9E
:101E6000E643B6B235401D8409B108290AD100EB1A
:101E7000610005684FF68F763540056005681543AB
:101E800005600DE00D1FADB200EB6500056848F67A
:101E9000FF76354005600568160645EA164505607B
:101EA00070BD21B1028842F00202028004E0028883
:101EB00040F2FD331A400280704721B1028842F09F
:101EC0000402028004E0028840F2FB331A400280E0
:101ED000704721B1828842F08002828004E08288CB
:101EE0004FF67F731A4082807047028840F2F733C2
:101EF0001A40028002880A430280704782884FF6A7
:101F00008F731A40828082880A43828070470289D8
:101F10004FF6F8731A40028102890A430281704722
:101F200002894FF67F731A40028102890A430281B7
:101F3000704781847047818570478186704701872B
:101F4000704781877047A0F8401070470288D2B26E
:101F5000028002880A43028070470146888E7047DB
:101F60000146088F70470146888F70470146B1F8D7
:101F7000400070470146888C70470146088D7047C5
:101F800002460020138A0B4201D0012000E000200D
:101F90007047CA430282704730B5024600200023D2
:101FA0000024158A05EA0103958905EA010413B1A5
:101FB0000CB1012000E0002030BDCA43028270470E
:101FC00039B1554A128842EA0002544BA3F800285E
:101FD00009E0514A12886FEA00039BB202EA030249
:101FE0004E4BA3F8002870474D48008840F0100081
:101FF0004A49A1F804087047494800884FF6EF7134
:1020000000EA01004549A1F804087047002145484D
:1020100001884248B0F8180841EA0040704700B50E
:102020000246FFF7E1FF100C3F4908803B49A1F849
:102030001C28FFF7E1FF00BD00B50246FFF7D4FF03
:10204000C2F30340394908803449A1F80C28FFF74E
:10205000D3FF00BD00B50246FFF7C6FF100C3449A0
:1020600008802E49A1F82428FFF7C6FF00BD0020F4
:10207000304909884FEA01714FEA11302749B1F818
:10208000141841EA0000704700BF2548008810F08E
:10209000200FFAD07047224800884FF6F77100EA07
:1020A00001001E49A1F8040800BF1D48008810F077
:1020B000080FFAD0704701460020194A12880A42D8
:1020C00001D0012000E000207047154909886FEA1F
:1020D000000292B201EA0201104AA2F80418704705
:1020E000014600200E4A128802EA0102D0B20B4AD1
:1020F000B2F800280A4202D008B1012000E0002016
:102100007047074909886FEA000292B201EA0201AA
:10211000024AA2F80418704700280040002000403E
:10212000042800401C2800401828004008280040CF
:10213000202800401028004001464FF0C042118086
:10214000F94A108870474FF0C0421080F64A11805B
:10215000704700B595B00220009000200190052046
:10216000029000200390049005904FF0805006905C
:102170000020079008900820099010200A90002065
:102180000B900C900D900E904FF480500F9000200B
:10219000109011901290CDF84CD0CDF850D007A8E7
:1021A00003F0C7FA0121002003F021FC01210802FD
:1021B00003F0F8F915B000BD08B50121612003F066
:1021C000FEF94CF6B370ADF8000003208DF8020064
:1021D00018208DF803006946D44802F04DFF4FF6F1
:1021E0008070ADF8000003208DF8020018208DF8F3
:1021F00003006946CE4802F03FFF08BD10B5034614
:102200000C4619464E20FFF79EFF21464F20FFF750
:102210009AFF10BD30B5044600210846FFF7EEFFD7
:1022200022204FF0C0410880002502E0BE48048013
:102230006D1CB5F5963FF9D330BD10B5FFF789FF9A
:10224000FFF7BAFF0020FFF777FFBA49088008467A
:102250000188B9A00AF080FCB6480088A0F50941C1
:1022600099397ED101210020FFF76DFF43F63F3100
:102270000120FFF768FF4FF4C0610220FFF763FF02
:1022800007210C20FFF75FFF06210D20FFF75BFF02
:102290004FF448510E20FFF756FFBB211E20FFF7D9
:1022A00052FF46F664210320FFF74DFF00210F2067
:1022B000FFF749FF4FF46F414420FFF744FF00212F
:1022C0004520FFF740FF40F23F114620FFF73BFF5C
:1022D00000213020FFF737FF40F206713120FFF771
:1022E00032FF40F206213220FFF72DFF4FF44071FC
:1022F0003320FFF728FF02213420FFF724FF0021BD
:102300003520FFF720FF40F207713620FFF71BFF53
:102310004FF400713720FFF716FF40F608113A20FE
:10232000FFF711FF40F60D713B20FFF70CFF062170
:102330002820FFF708FF41F2EB212F20FFF703FFD2
:102340004FF4E0412620FFF7FEFE4BF2E301202090
:10235000FFF7F9FE44212720FFF7F5FE47F6456118
:1023600000E012E02E20FFF7EEFE00211020FFF724
:10237000EAFE0320FEF714F846F670011120FFF77D
:10238000E2FE33210720FFF7DEFE0020FFF742FFC9
:1023900010BD2DE9F04304460D461646DDF81C90AD
:1023A000A019401E44EA002081B24420FFF7CBFE72
:1023B00029464520FFF7C7FEE818401E81B2462097
:1023C000FFF7C1FE274618E0A84612E039464E2026
:1023D000FFF7B9FE41464F20FFF7B5FE22204FF030
:1023E000C04108805048A0F8009008F101001FFA91
:1023F00080F89845EADB781C87B2B742E4DB4FF4FB
:102400006F414420FFF79FFE00214520FFF79BFE10
:1024100040F23F114620FFF796FEBDE8F0832DE91C
:10242000F04706460C4690461D46DDF820A006EB18
:102430000800401E46EA002081B24420FFF783FED8
:1024400021464520FFF77FFE6019401E81B24620DD
:10245000FFF779FE002717E0E01981B23046FFF759
:10246000CDFE22204FF0C04108804FF0000906E069
:102470002D48A0F800A009F101001FFA80F9281BDF
:102480004845F5DC781C87B2281BB842E4DC4FF4E1
:102490006F414420FFF757FE00214520FFF753FE10
:1024A00040F23F114620FFF74EFEBDE8F0872DE9D0
:1024B000F04782460E4690463746002426E03946CD
:1024C0005046FFF79BFE22204FF0C0410880A8F144
:1024D00020001D4901EB001010F8049000250FE0CA
:1024E00009FA05F010F0800F04D0184800880E4952
:1024F000088003E0164800880B490880681C85B2F4
:10250000082DEDDB781C87B2601C84B2102CD6DB62
:102510000820BDE8F0872DE9F04788B082460F46D5
:102520009046C146002425E00000026000140140EE
:10253000001801405C0000204465766963654944E9
:102540003D307825780D0A0026DC00085400002074
:102550005600002039F8020B2DF814003DF8140045
:10256000000A3DF81410C9B240EA01202DF8140009
:10257000601C84B2102CEDDB3E46002420E0314686
:102580005046FFF73BFE22204FF0C0410880002557
:1025900010E03DF81400A84010F4004F04D0FF48AC
:1025A0000088FF49088003E0FE480088FC49088055
:1025B000681C85B2102DECDB701C86B2601C84B2E6
:1025C000102CDCDB102008B0BDE8F0872DE9F047C7
:1025D00006460D4614464FF00008C146DFF8C89382
:1025E00058E006EB080086B2207800B953E0207866
:1025F000802822DD06F11000F0280DDD002605F10F
:10260000100085B2B5F5A07F06DD00200646054620
:102610004FF6FF70FFF7FEFD204600F067FB074610
:1026200007EB071009EB4000821C29463046FFF7F4
:1026300072FF00F0FF08A41C2BE020780D2809D1C0
:1026400005F1100085B2F02D00DD0025641C4FF06F
:1026500000081FE020780A2804D10026641C4FF0EF
:10266000000817E0E82E0DDD002605F1100085B208
:10267000B5F5987F06DD0020064605464FF6FF704B
:10268000FFF7C8FD227829463046FFF710FF804645
:10269000641C00BFA5E700BFBDE8F0872DE9F04747
:1026A00006460D4614461F464FF00009CA46DFF89D
:1026B000F8A25AE006EB090086B2207800B955E08E
:1026C0002078802822DD06F11000F0280DDD00269C
:1026D00005F1100085B2B5F5A07F06DD00200646A5
:1026E00005464FF6FF70FFF795FD204600F0FEFA15
:1026F000804608EB08100AEB4000821C2946304651
:10270000FFF709FF00F0FF09A41C2DE020780D2839
:1027100009D105F1100085B2F02D00DD0025641C03
:102720004FF0000921E020780A2804D10026641C1B
:102730004FF0000919E0E82E0DDD002605F110002C
:1027400085B2B5F5987F06DD0020064605464FF6B2
:10275000FF70FFF75FFD91480780227829463046D9
:10276000FFF7A5FE8146641C00BFA3E700BFBDE8DC
:10277000F0872DE9F04104460E461546DDF8188035
:1027800047466019401E44EA002081B24420FFF70A
:10279000DAFC31464520FFF7D6FCF018401E81B226
:1027A0004620FFF7D0FC21464E20FFF7CCFC3146F7
:1027B0004F20FFF7C8FC22204FF0C04108800020C6
:1027C0007A49088015E000207949088008E037F848
:1027D000020B7349088076480088401C74490880C1
:1027E00073480088A842F2DB70480088401C6F499B
:1027F00008806E4800889842E5DB4FF46F41442022
:10280000FFF7A1FC00214520FFF79DFC40F23F119E
:102810004620FFF798FCBDE8F08110B50246012084
:1028200000E050430B00A1F10104E1B2F9D110BD69
:102830002DE9F0470646894690461D464FF0000AAE
:1028400000242AE0281B401EC1B20A20FFF7E5FF42
:10285000B8FBF0F00A21B0FBF1F201FB1200C7B2A5
:10286000BAF1000F0DD1681EA0420ADD3FB9082160
:1028700001FB046020224946FFF719FE0BE04FF0F0
:10288000010A082101FB046007F13001CAB2494680
:10289000FFF70DFE00BF601CC4B2AC42D2DBBDE846
:1028A000F08722204FF0C041088070473C490880E3
:1028B000704730B504460D4629462046FFF79EFC7A
:1028C000FFF7EFFF35480088FFF7F0FF30BD70B528
:1028D00005460E46144631462846FFF78FFCFFF7A3
:1028E000E0FF2046FFF7E2FF70BD2DE9FF4F84B007
:1028F00081468A460020039002900698A0EB0905C5
:102900000798A0EB0A06CDF80490CDF800A0002DA2
:1029100001DD012705E00DB9002702E04FF0FF3788
:102920006D42002E02DD4FF0010806E016B94FF0AF
:10293000000802E04FF0FF387642B54201DD2C4638
:1029400000E034464FF0000B21E0009881B201987E
:1029500080B2FFF7AEFF03982844039002983044FA
:1029600002900398A04205DD0398001B0390019894
:10297000384401900298A04205DD0298001B0290A5
:102980000098404400900BF101001FFA80FB601C8E
:102990008345DADD08B0BDE8F08F00005400002068
:1029A000000002605600002026E2000858000020C7
:1029B0005A0000202DE9FF4F83B081464FF0000AF6
:1029C000D3460598A0EB090504990698461ACDF858
:1029D000049004980090002D01DD012705E00DB959
:1029E000002702E04FF0FF376D42002E02DD4FF06E
:1029F000010806E016B94FF0000802E04FF0FF387A
:102A00007642B54201DD2C4600E0344600200290BB
:102A10001AE0009881B2019880B2109AFFF757FF30
:102A2000AA44B344A24504DDAAEB040A0198384441
:102A30000190A34504DDABEB040B009840440090EB
:102A40000298401C80B20290611C02988842E0DD2E
:102A500007B0BDE8F08F2DE9F04306460F469046DB
:102A6000002445460320A0EB480948E03A1B91B2F8
:102A7000721B90B2FFF71DFF3A1B91B2721990B210
:102A8000FFF717FF7A1991B2321B90B2FFF711FFCF
:102A90003A1B91B2721B90B2FFF70BFF7A1B91B2F7
:102AA000321B90B2FFF705FF3A1991B2721990B23A
:102AB000FFF7FFFE7A1B91B2321990B2FFF7F9FED1
:102AC0007A1991B2321990B2FFF7F3FE3A1991B226
:102AD000721B90B2FFF7EDFE641CB9F1000F03DA30
:102AE000A000801D814404E0601B80000A30814406
:102AF0006D1E7A1991B2321990B2FFF7DAFEAC422C
:102B0000B4DDBDE8F0832DE9F84F05460E461446C6
:102B10001F46281B1FFA80F805EB040A301B1FFA1A
:102B200080F930191FFA80FB5B4652464946404601
:102B30000097FFF72EFCBDE8F88F2DE9F047064619
:102B40000F4690469A46002445460320A0EB4809CC
:102B500052E03A1B91B2721B90B25246FFF7B7FE99
:102B60003A1B91B2721990B25246FFF7B0FE7A1931
:102B700091B2321B90B25246FFF7A9FE3A1B91B2B6
:102B8000721B90B25246FFF7A2FE7A1B91B2321B23
:102B900090B25246FFF79BFE3A1991B2721990B269
:102BA0005246FFF794FE7A1B91B2321990B2524608
:102BB000FFF78DFE7A1991B2321990B25246FFF7A3
:102BC00086FE3A1991B2721B90B25246FFF77FFE11
:102BD000641CB9F1000F03DAA000801D814404E0F9
:102BE000601B80000A3081446D1E7A1991B232193F
:102BF00090B25246FFF76BFEAC42AADDBDE8F0870B
:102C0000F0B504460D4616461F462B463246294669
:102C10002046FFF76AFE3B46224629462046FFF73C
:102C200064FE3B46324639462046FFF75EFE3B4691
:102C3000324629463046FFF758FEF0BD2DE9F841EF
:102C400004460D4616461F46DDF81C802B463246CC
:102C500029462046CDF80080FFF7ACFE3B462246D1
:102C600029462046CDF80080FFF7A4FE3B463246B9
:102C700039462046CDF80080FFF79CFE3B463246A1
:102C800029463046CDF80080FFF794FEBDE8F88174
:102C900038B5002414E0124830F814304FF49B701B
:102CA000A0EBC400009383B2601C4FF49B72A2EBB4
:102CB000C00081B2DC22D220FFF76BFB601CC4B2E3
:102CC0000A2CE8DB07A24FF49071CA20FFF77EFCC4
:102CD00005A24FF49571DE20FFF778FC38BD0000A7
:102CE000A4010020300000002D00000010B50246B5
:102CF00000210F4B13E0107801EB011413F814407E
:102D0000A04209D1507801EB011403EB440464782C
:102D1000A04201D1084610BD481C81B200BF01EBA2
:102D2000011013F810008028E5DC00BF0020F2E756
:102D300026E2000870B52A25FF48446B01E0FE48F2
:102D4000446B14F0450FFAD014F0040F05D003259E
:102D5000042003F03DFA284670BD14F0010F05D0A1
:102D60000125012003F034FA2846F5E740F2FF5030
:102D700003F02EFA2846EFE72DE9F04106460F460C
:102D80004FF02A08EC48456B01E0EB48456B15F025
:102D9000450FFAD015F0040F07D04FF003080420B8
:102DA00003F016FA4046BDE8F08115F0010F06D099
:102DB0004FF00108012003F00BFA4046F3E703F05F
:102DC000ADF9B04203D04FF010084046EBE740F2B7
:102DD000FF5003F0FDF9002003F0A4F9044614F4B9
:102DE000604F03D1200C38804046DCE714F4005FCC
:102DF00001D01320D7E714F4804F01D01020D2E780
:102E000014F4004F01D00F20CDE74046CBE738B592
:102E10002A240120009003F052F910B925242046FD
:102E200038BDC6480068042829D00020C44908607D
:102E300002204860C02088600020C8604FF4806095
:102E40000861084603F050F9FFF774FF04462A2C86
:102E500001D02046E4E7002003F064F9B949086096
:102E6000042003F05FF9B7494860082003F05AF9DD
:102E7000B44988600C2003F055F9B249C860AF48E6
:102E8000006858B1AD480068012807D0AB48006819
:102E9000062803D0A9480068022817D10020A849B5
:102EA000086003204860402088600020C8604FF41C
:102EB00080600861084603F017F969460320FFF7B0
:102EC0005BFF04462A2C01D02046A9E79B480068F6
:102ED00004282FD0BDF800009B490860BDF8000011
:102EE00000049749086009204860C02088600020DD
:102EF000C8604FF480600861084603F0F5F8FFF7FA
:102F000019FF04462A2C01D0204689E7002003F04F
:102F100009F98E490860042003F004F98B494860E0
:102F2000082003F0FFF8894988600C2003F0FAF8C4
:102F30008649C8602A24204672E770B52A257E4853
:102F4000446B01E07C48446B14F0450FFAD014F058
:102F5000040F05D00325042003F03AF9284670BD7C
:102F600040F2FF5003F034F92846F8E72DE9F0412C
:102F700006462A277048456B01E06F48456B15F0FF
:102F8000450FFAD015F0040F06D00327042003F0F4
:102F90001FF93846BDE8F08115F0010F05D0012773
:102FA000012003F015F93846F4E703F0B7F8B04212
:102FB00002D010273846EDE740F2FF5003F008F941
:102FC000002003F0AFF804466148044201D13846BE
:102FD000E0E714F0004F01D01C20DBE714F0804F35
:102FE00001D00920D6E714F0005F01D00A20D1E714
:102FF00014F0805F01D00B20CCE714F0006F01D0FB
:103000000C20C7E714F0806F01D00D20C2E714F048
:10301000807F01D00E20BDE714F4000F01D00F20F7
:10302000B8E714F4800F01D01020B3E714F4001FA8
:1030300001D01120AEE714F4801F01D01220A9E7BF
:1030400014F4002F01D01320A4E714F4802F01D032
:1030500014209FE714F4003F01D015209AE714F4E0
:10306000803F01D0162095E714F4004F01D01720BF
:1030700090E714F4804F01D018208BE714F4005F20
:1030800001D0192086E714F0080F01D01A2081E73B
:1030900038467FE770B52A2642F210752648446B01
:1030A00002E06D1E2448446B14F0450F01D1002D41
:1030B000F7D115B114F0040F05D00326042003F056
:1030C00087F8304670BD14F0400F05D02A26402006
:1030D00003F07EF83046F5E73046F3E770B52A2571
:1030E00042F2107400E0641E24B1802003F066F800
:1030F0000028F8D014B90325284670BD40F2FF50CF
:1031000003F066F82846F8E72DE9F0412A24002666
:10311000002500274FF00008B2200E490875002056
:10312000086048608860C8600861084602F09CFF3B
:10313000032002F0B9FF0FE0008001406000002092
:10314000EC450020C445002064000020B445002068
:1031500008E0FFFDD4450020012002F0A2FF00207E
:10316000FF49086048608860C8604FF4806008616B
:10317000084602F0B9FFFFF7B1FF04462A2C02D03F
:103180002046BDE8F0814FF4D570F549086008206D
:103190004860402088600020C8604FF4806008616B
:1031A000084602F0A1FFFFF775FF04462A2C05D15F
:1031B0000120EC4908604FF0804812E00020E84907
:1031C000086037204860402088600020C8604FF4C5
:1031D00080600861084602F087FF3720FFF7C6FECF
:1031E00004460020DE49086037204860402088609F
:1031F0000020C8604FF480600861084602F074FF48
:103200003720FFF7B3FE04462A2C4CD138E00020CB
:10321000D349086037204860402088600020C8609B
:103220004FF480600861084602F05EFF3720FFF728
:103230009DFE04462A2C01D02046A2E7CA4848EA4F
:103240000000C749086029204860402088600020AD
:10325000C8604FF480600861084602F045FFFFF740
:103260006CFE04462A2C01D020468AE7002002F09A
:1032700059FF0646012080EAD67080F001076D1CD8
:103280001FB94FF6FF708542C1D34FF6FF708542DC
:1032900002D31B24204674E706F08040060002D0CB
:1032A0000220B049086020466BE708B501213020B4
:1032B00002F085F94FF4F850ADF8000003208DF8C6
:1032C000020018208DF803006946A84801F0D4FEDA
:1032D0000420ADF800006946A54801F0CDFE08BD08
:1032E00010B52A24FFF7E1FF0121880202F05AF904
:1032F0000121022002F056F902F0A8FEFFF704FFB8
:1033000004462A2C01D0204610BDFFF780FD04465C
:103310002A2C01D02046F7E70120964908750020A5
:10332000086048608860C8600861084602F09CFE3A
:103330002046E9E710B52A24002002F0B5FE204619
:1033400010BD30B501462A200022864B1B6881F84B
:103350004E30894B1B68A1F84C30884B1B681A0E05
:1033600093090B70C2F383034B7002F003038B705D
:10337000824B1B68C3F30742CA70804B1B68C3F3C0
:1033800007220A717D4B1B68DAB24A717B4B5B687E
:103390001A0E1301CB80794B5B68C3F30742CB88CD
:1033A00043EA1213CB8002F00F030B72734B5B687E
:1033B000C3F30722D3094B72C2F380138B72C2F39B
:1033C0004013CB72C2F300130B7300234B73654B96
:1033D0001B681BB1634B1B68012B3DD193071B0D71
:1033E0000B61664B5B68DAB20B6943EA82030B61DF
:1033F000624B9B681A0E0B6943EA92130B61C2F38E
:10340000C2030B7502F007034B755C4B9B68C3F35B
:10341000074253098B75C2F38203CB7593075B0F89
:103420000B76564B9B68C3F307220B7E43EAD213FD
:103430000B760B695B1C4B640C7E4B6CA41C01254A
:10344000A5406B434B640C7A0123A3408B64D1E904
:10345000113463434B6422E0424B1B68022B1ED1A4
:10346000464B5B68DAB293069B0A0B61434B9B6841
:103470001A0E0B6943EA02230B61404B9B68C3F3AE
:1034800007420B6913430B613C4B9B68C3F3072254
:103490000B695B1CDB044B644FF400738B64C2F359
:1034A000801301F8193F93065B0E4B70334B9B68FA
:1034B000DAB24B7843EAD2134B7002F07F038B7081
:1034C0002E4BDB681A0ED309CB70C2F341130B717C
:1034D000C2F382034B7193071B0F8B71274BDB6881
:1034E000C3F307428B7943EA92138B71C2F3401303
:1034F000CB7100230B7202F001034B721F4BDB6890
:10350000C3F30722D3098B72C2F38013CB72C2F3C9
:1035100040130B73C2F300134B73C2F381038B731D
:1035200002F00303CB73154BDB68DAB253080B745C
:1035300001234B74124B1B681A0ECA74A1F11901B6
:103540000F4B1B68C3F307424FEA0223CB850C4B9A
:103550001B68C3F30722CB8D43EA0203CB8511E03E
:10356000EC450020600000200000108000100140A9
:1035700000140140D445002064000020B445002020
:10358000C4450020F84B1B68DAB24FEA02640C63B2
:10359000F54B5B684FEA13620B6B43EA02440C6322
:1035A000F14B5B68C3F307420B6B43EA02240C63E5
:1035B000ED4B5B68C3F307220B6B43EA02030B631B
:1035C000E94B5B68DAB24FF034035A54E64B9B6820
:1035D0004FEA13624FF035035A54E34B9B68C3F331
:1035E00007424FEA02648C63DF4B9B68C3F30722F8
:1035F0008B6B43EA02448C63DB4B9B68DAB28B6BC8
:1036000043EA02248C63D84BDB684FEA13628B6B6E
:1036100043EA02038B63D44BDB68C3F307424FF0EA
:103620003C035B5C43EA12134FF03C0463544FEAE3
:1036300002734FEA1353CB87CB4BDB68C3F30722EC
:10364000CB8F43EA0203CB87C74BDB68DAB24FEA82
:1036500052034FF0400463544FF001044FF0410314
:103660005C5430BD2DE9FC4107460D4600262A2456
:103670000020009001900820BC490860102048609C
:10368000402088600020C8604FF4806008610846D0
:1036900002F02AFD1020FFF769FC04462A2C02D014
:1036A0002046BDE8FC81B24800680004AF490860CC
:1036B00037204860402088600020C8604FF4806058
:1036C0000861084602F010FD3720FFF74FFC044662
:1036D0002A2C01D02046E4E7A648A7490860082024
:1036E0004860302088600220C86000200861012006
:1036F0004861084602F01DFD00209C490860332007
:103700004860402088600020C8604FF480600861F5
:10371000084602F0E9FC3320FFF728FC04462A2C77
:1037200001D02046BDE709E04FF4001002F046FD4D
:1037300020B102F020FD4DF82600761C8F48406B2A
:1037400040F22A610842EFD0082002F037FD28B18C
:10375000082002F03DFD04242046A2E7022002F0EA
:103760002DFD28B1022002F033FD0224204698E707
:10377000202002F023FD28B1202002F029FD06249C
:1037800020468EE74FF4007002F018FD30B14FF480
:10379000007002F01DFD0724204682E740F2FF5032
:1037A00002F016FD00980006009901F47F4140EAFE
:1037B0000120009901F47F0140EA1120009940EABC
:1037C0001160686001980006019901F47F4140EAA8
:1037D0000120019901F47F0140EA1120019940EA9A
:1037E0001160286020465CE77CB505462A2400204D
:1037F0000090019002F096FC10F0007F02D00E24A1
:1038000020467CBD69465A48006880B2FFF72AFF0F
:1038100004462A2C01D02046F3E7012D37D1019828
:1038200010F4802F30D05248006800044F490860DF
:1038300037204860402088600020C860A8020861E6
:10384000084602F051FC3720FFF790FB04462A2C73
:1038500001D02046D5E70220444908600620486090
:10386000402088600020C8604FF4806008610846EE
:1038700002F03AFC0620FFF779FB04462A2C01D01F
:103880002046BEE72046BCE725242046B9E701983C
:1038900010F4803F31D03648006800043349086096
:1038A00037204860402088600020C8604FF4806066
:1038B0000861084602F018FC3720FFF757FB044662
:1038C0002A2C01D020469CE70020284908600620C9
:1038D0004860402088600020C8604FF48060086124
:1038E000084602F001FC0620FFF740FB04462A2CA4
:1038F00001D0204685E7204683E72524204680E73F
:1039000070B504462A251E480068032802D12725E1
:10391000284670BD1A48006838B119480068012867
:1039200003D017480068022840D1B4F5805F02D167
:1039300027252846EDE7B4F5006F25D10120FFF7D4
:1039400053FF05462A2D31D101200E49087500206C
:103950000860486088604FF40060C860002008611B
:10396000084602F081FB21E0C4450020EC45002020
:1039700064000020FFFF0F0000460020008001408F
:1039800060000020D44500200020FFF72DFF0546F1
:103990002A2D0BD10120FF490875002008604860DE
:1039A0008860C8600861084602F05EFB2846B0E700
:1039B00001462A2019B1012901D0022902D1F64A73
:1039C000116000E02620704770B504462A25F348B0
:1039D00004600720F1494860402088600020C860EA
:1039E0004FF480600861084602F07EFB0720FFF775
:1039F000BDFA0546284670BD30B58BB005460C466D
:103A0000E74802F002FD0021E64802F0D5FCE64856
:103A10000090019500200290A008039000200490DF
:103A2000802005908000069080000790002008907C
:103A30004FF40050099000200A906946D94802F0DE
:103A400090FC0121D74802F0B7FC0BB030BD014615
:103A5000002002E04910421CD0B20129FAD170477F
:103A60002DE9F04707460D4614464FF02A084FF05F
:103A700000092E464FF0000A25B94FF026084046AF
:103A8000BDE8F0872A20C94908700020C8490860AD
:103A9000C8490860C848C949086000204860886073
:103AA000C86008614861084602F043FB002002F04C
:103AB00018FB002002F036FB10F0007F03D04FF01F
:103AC0000E084046DCE7BE480068022801D1040227
:103AD0007F0A002C21DDB4F5006F1EDC601E204241
:103AE0001BD12046FFF7B3FF8246AC48046010208C
:103AF000AA494860402088600020C8604FF4806078
:103B00000861084602F0F0FA1020FFF72FFA80460D
:103B1000B8F12A0F05D04046B2E74FF026084046DC
:103B2000AEE7A548A5490860084644604FEA0A1078
:103B300088600220C86000200861012048610846B2
:103B400002F0F7FA9B48046000209E4908609E48F6
:103B500005609248076011209049486040208860C5
:103B60000020C8604FF480600861084602F0BCFA8B
:103B70001120FFF7FBF98046B8F12A0F01D040462B
:103B80007EE785480068022857D111E04FF40040D5
:103B900002F014FB60B14FF0000905E002F0EBFA0F
:103BA00046F8290009F10109B9F1080FF6D32036CA
:103BB0007D488038406B40F22A610842E6D00820F8
:103BC00002F0FCFA30B1082002F002FB4FF00408CA
:103BD000404655E7022002F0F1FA30B1022002F02F
:103BE000F7FA4FF0020840464AE7202002F0E6FAD2
:103BF00030B1202002F0ECFA4FF0060840463FE7D3
:103C00004FF4007002F0DAFA38B14FF4007002F0AD
:103C1000DFFA4FF00708404632E703E002F0ABFA64
:103C20003060361D4FF4001002F0C8FA0028F5D1BC
:103C300040F2FF5002F0CCFA2CE05748006801280F
:103C400013D1012148F22A3002F03EFA00BF584851
:103C5000006818B9554800782A28F8D053480078E9
:103C60002A2817D0514800780AE74B48006888B9DD
:103C7000012140F22A3002F027FA012002F031FA45
:103C800021462846FFF7B8FE00BF504802F0ACFBC3
:103C90000028FAD04046F3E62DE9F05F81460E4653
:103CA00014461D464FF02A084FF0000A37464FF0E1
:103CB000000B26B94FF026084046BDE8F09F2A20A9
:103CC0003A49087000203A4908603A4908603A4881
:103CD0003A490860002048608860C860086148610F
:103CE000084602F026FA002002F0FBF9002002F05C
:103CF00019FA10F0007F03D04FF00E084046DCE7C1
:103D00002F480068022802D104024FEA5929002CEA
:103D100021DDB4F5006F1EDC601E20421BD1204661
:103D2000FFF795FE83461D48046010201B4948603C
:103D3000402088600020C8604FF480600861084619
:103D400002F0D2F91020FFF711F98046B8F12A0FDE
:103D500005D04046B1E74FF026084046ADE7012DBB
:103D60007ED905FB04F0B0F1007F03D34FF02608A5
:103D70004046A2E705FB04F00E4908600120114906
:103D80000860114806600C480C49086005FB04F007
:103D900048601DE0D445002068000020EC4500206C
:103DA00000F00010440402408080014074000020B4
:103DB000780000206C000020FFFF0F00004600206C
:103DC000600000207000002084000020002000100F
:103DD0004FEA0B1088600220C860002008610120B3
:103DE0004861084602F0A5F9FF48C0F8009012208B
:103DF000FD494860402088600020C8604FF4806022
:103E00000861084602F070F91220FFF7AFF880460B
:103E1000B8F12A0F01D040464FE7F4480068022865
:103E20007BD111E04FF4004002F0C8F960B14FF0CF
:103E3000000A05E002F09FF947F82A000AF1010A9A
:103E4000BAF1080FF6D32037E948406B40F22A3127
:103E50000842E7D0082002F0B1F940B1082000E0A4
:103E60009EE002F0B5F94FF00408404625E7022035
:103E700002F0A4F930B1022002F0AAF94FF00208D2
:103E800040461AE7202002F099F930B1202002F0D4
:103E90009FF94FF0060840460FE74FF4007002F01C
:103EA0008DF938B14FF4007002F092F94FF0070825
:103EB000404602E703E002F05EF938603F1D4FF430
:103EC000001002F07BF90028F5D14FF4807002F069
:103ED00075F918B3C748006838B1C64800680228A9
:103EE00003D0C4480068012818D10020BE490860EA
:103EF0000C204860402088600020C8604FF480603B
:103F00000861084602F0F0F80C20FFF72FF8804611
:103F1000B8F12A0F02D04046CFE604E040F2FF504D
:103F200002F056F93CE0B1480068012813D10121A4
:103F300048F22A3002F0C8F800BFAF48006818B94C
:103F4000AE4800782A28F8D0AC4800782A2827D034
:103F5000AA480078B1E6A548006808BB012140F2F4
:103F60002A3002F0B1F8012002F0BBF805FB04F1A1
:103F70003046FFF741FD00BFA14802F035FA0028A6
:103F8000FAD000BF9C48006818B99C4800782A28DD
:103F9000F8D09A4800782A2802D0984800788CE611
:103FA00040468AE62DE9F04106462A2700240025EE
:103FB0009448006800048C4908600D204860402047
:103FC00088600020C8604FF480600861084602F0F5
:103FD0008BF88748456B01E08548456B15F0450F28
:103FE000FAD015F0040F06D00327042002F0F0F8F1
:103FF0003846BDE8F08115F0010F05D001270120FA
:1040000002F0E6F83846F4E702F088F805460D2D90
:1040100002D010273846ECE740F2FF5002F0D8F803
:10402000002002F07FF80446C4F343203070764845
:10403000044201D13846DCE714F0004F01D01C20C7
:10404000D7E714F0804F01D00920D2E714F0005FC9
:1040500001D00A20CDE714F0805F01D00B20C8E723
:1040600014F0006F01D00C20C3E714F0806F01D072
:104070000D20BEE714F0807F01D00E20B9E714F4C4
:10408000000F01D00F20B4E714F4800F01D01020EE
:10409000AFE714F4001F01D01120AAE714F4801F29
:1040A00001D01220A5E714F4002F01D01320A0E7BF
:1040B00014F4802F01D014209BE714F4003F01D0AA
:1040C000152096E714F4803F01D0162091E714F4F0
:1040D000004F01D017208CE714F4804F01D0182036
:1040E00087E714F4005F01D0192082E714F0080F6D
:1040F00001D01A207DE738467BE730B58BB0054606
:104100000C46424802F081F90021414802F054F97E
:10411000374880300090019510200290A00803904D
:104120000020049080200590800006908000079079
:10413000002008904FF40050099000200A90694632
:10414000334802F00EF90121314802F035F90BB085
:1041500030BD2DE9FF5F82460F4614462A25002018
:104160000390029083460026019080460090B94655
:1041700027B92625284604B0BDE8F09F2A201F490C
:10418000087000201C490860224908602248234921
:104190000860002048608860C8600861486108467F
:1041A00001F0C7FF002001F09CFF002001F0BAFFE2
:1041B00010F0007F02D00E252846DCE70D4800688D
:1041C000022802D104024FEA5A2A002C3DDDB4F540
:1041D000006F3ADC601E204237D12046FFF737FCE3
:1041E0000390014804601BE0EC45002068000020BB
:1041F0000080014060000020780000207400002052
:10420000002000106400002008E0FFFD00F0001016
:10421000440402406C000020FFFF0F000046002015
:104220001020FF494860402088600020C8604FF49B
:1042300080600861084601F057FF1020FEF796FEE7
:1042400005462A2D04D0284695E72625284692E7DC
:10425000F44800680004F24908600D2048604020DE
:1042600088600020C8604FF480600861084601F053
:104270003BFF0D20FEF77AFE05462A2D01D0284689
:1042800079E7002001F04EFF0190DFF89CB31EE0BB
:10429000ABF1010BE34800680004E14908600D2020
:1042A0004860402088600020C8604FF4806008614A
:1042B000084601F019FF0D20FEF758FE05462A2D8D
:1042C00001D0284657E7002001F02CFF019001980B
:1042D00010F4807F02D1BBF1000FD9D1BBF1000FE8
:1042E00001D1292047E7CE48C0F800A01820CC49CA
:1042F0004860402088600020C8604FF480600861FA
:10430000084601F0F1FE1820FEF730FE05462A2D82
:1043100001D028462FE7C54804600020C449086042
:10432000C4480760C048C449086008464460039810
:10433000000188600020C8600861012048610846CB
:1043400001F0F7FEBD48006802286AD139E04FF459
:10435000804001F033FFA0B3B4480068801B2028E0
:1043600020D2B2480068801B10F0030F04D1AF4880
:104370000068801B800804E0AC480068801B80084F
:10438000401C00904FF0000808E0D9F8000001F050
:10439000F5FE08F1010809F10409361D0098804571
:1043A0000FD2F2E74FF0000805E059F8280001F0BD
:1043B000E5FE08F10108B8F1080FF6D309F120096C
:1043C00020369F48406B40F21A610842BFD0082057
:1043D00001F0F4FE28B1082001F0FAFE0425284679
:1043E000C9E6022001F0EAFE28B1022001F0F0FE49
:1043F00002252846BFE6102001F0E0FE28B110207B
:1044000001F0E6FE05252846B5E64FF4007001F000
:10441000D5FEF0B34FF4007001F0DAFE0725284610
:10442000A9E686480068012813D1012144F21A3018
:1044300001F04AFE00BF8348006818B9824800783E
:104440002A28F8D0804800782A2828D07E4800788A
:1044500091E67A480068E0B9012140F21A3001F093
:1044600033FE21463846FFF748FE012001F039FEB1
:1044700000BF764801F0B8FF0028FAD000BF7148AD
:10448000006818B9704800782A28F8D06E4800787B
:1044900000E004E02A2802D06B4800786BE640F286
:1044A000FF5001F095FE02A8FFF77CFD054603E0F2
:1044B00002A8FFF777FD05462A2D07D19DF80800D1
:1044C0000728F5D09DF808000628F1D0284652E6C6
:1044D0002DE9FE4F8346884614461E462A250020B5
:1044E00002900190002781460090C246B8F1000F6B
:1044F00003D126252846BDE8FE8F2A2052490870A0
:104500000020504908604949086047484A49086006
:10451000002048608860C86008614861084601F072
:1045200008FE002001F0DDFD002001F0FBFD10F091
:10453000007F02D00E252846DDE7454800680228A6
:1045400002D104024FEA5B2B002C20DDB4F5006F92
:104550001DDC601E20421AD12046FFF778FA029037
:104560002F48046010202E494860402088600020B9
:10457000C8604FF480600861084601F0B5FD102066
:10458000FEF7F4FC05462A2D04D02846B3E726257D
:104590002846B0E7234800680004214908600D2040
:1045A0004860402088600020C8604FF48060086147
:1045B000084601F099FD0D20FEF7D8FC05462A2D8E
:1045C00001D0284697E7012E75D906FB04F0B0F11B
:1045D000007F02D3262528468DE71D48006838B1A4
:1045E0001B480068012803D01948006802284AD1F6
:1045F0000C48006800040A490860372048604020E1
:1046000088600020C8604FF480600861084601F0AF
:104610006BFD3720FEF7AAFC05462A2D1CD019E0B9
:10462000EC45002064000020FFFF0F006C0000201C
:10463000700000208000002000460020680000205C
:10464000008001407800002074000020002000104D
:104650006000002028464EE7FA4806601720F94916
:104660004860402088600020C8604FF48060086186
:10467000084601F039FD1720FEF778FC05462A2D83
:1046800001D0284637E7EF48C0F800B01920ED49BF
:104690004860402088600020C8604FF48060086156
:1046A000084601F021FD1920FEF760FC05462A2D81
:1046B00002D028461FE7CAE006FB04F0E249086082
:1046C0000120E2490860E248C0F80080E148E24980
:1046D000086006FB04F04860029800018860002032
:1046E000C860086101204861084601F022FDDB48EE
:1046F000006802287ED139E04FF4804001F05EFD71
:10470000A0B3D1480068C01B20280FD34FF0000988
:1047100005E05AF8290001F031FD09F10109B9F16C
:10472000080FF6D30AF1200A20371FE0C6480068B8
:10473000C01B10F0030F04D1C3480068C01B8008E1
:1047400004E0C1480068C01B8008401C00904FF086
:10475000000908E0DAF8000001F010FD09F1010994
:104760000AF1040A3F1D00988145F3D3BC48406B11
:1047700040F21A310842BFD0082001F01FFD28B1D5
:10478000082001F025FD04252846B4E6022001F0AA
:1047900015FD28B1022001F01BFD02252846AAE6DE
:1047A000102001F00BFD28B1102001F011FD0525AE
:1047B0002846A0E64FF4007001F000FD30B14FF440
:1047C000007001F005FD0725284694E64FF480703F
:1047D00001F0F4FCD8B3A348006838B1A1480068E0
:1047E000012803D09F480068022856D1002095492F
:1047F000086000E013E00C20486040208860002042
:10480000C8604FF480600861084601F06DFC0C2020
:10481000FEF7ACFB05462A2D3FD028466BE68F48B5
:104820000068012814D1012144F21A3001F04CFC37
:1048300000BF8D48006818B98C4800782A28F8D045
:104840008A4800782A2828D08848007853E624E04F
:104850008248006808BB012140F21A3001F034FCA4
:10486000012001F03EFC06FB04F14046FFF745FC49
:1048700000BF7F4801F0B8FD0028FAD000BF7A4899
:10488000006818B9794800782A28F8D07748007865
:104890002A2802D0754800782DE640F2FF5001F03A
:1048A00097FC01A8FFF77EFB054603E001A8FFF790
:1048B00079FB05462A2D07D19DF804000728F5D07D
:1048C0009DF804000628F1D0284614E66448406BA1
:1048D00010F4405F01D0012070470020FCE710B5C4
:1048E0002A240020574908600C2048604020886036
:1048F0000020C8604FF480600861084601F0F4FBB6
:104900000C20FEF733FB0446204610BD2DE9F8438A
:1049100005460E462A2400274FF00008002000908C
:1049200054484068202111EA105F03D12524204615
:10493000BDE8F8834A484068C0B2801C4E49B1FBCC
:10494000F0F8002001F0EEFB10F0007F02D00E2402
:104950002046EDE743480068022801D16D0A760A37
:104960004048006838B13F480068012803D03D48FE
:10497000006802282DD13348056020203149486065
:10498000402088600020C8604FF4806008610846BD
:1049900001F0AAFB2020FEF7E9FA04462A2C01D0F8
:1049A0002046C5E727480660212026494860402068
:1049B00088600020C8604FF480600861084601F0FC
:1049C00093FB2120FEF7D2FA04462A2C01D0204680
:1049D000AEE700201B490860262048604020886020
:1049E0000020C8604FF480600861084601F07CFB3D
:1049F0002620FEF7BBFA04462A2C01D0204697E772
:104A0000002700E07F1C4745FCD36846FFF7CAFA41
:104A1000044603E06846FFF7C5FA04462A2C07D18E
:104A20009DF800000728F5D09DF800000628F1D079
:104A300020467DE770B504462A2514B92625284668
:104A400070BD1BE0EC4500206C00002070000020D1
:104A500080000020FFFF0F000046002068000020BB
:104A600000800140600000207800002074000020D9
:104A700000200010B445002040190100FF480068E4
:104A80000004FF4908600D20486040208860002035
:104A9000C8604FF480600861084601F025FB0D20D6
:104AA000FEF764FA05462A2D01D0284670BD002085
:104AB00001F038FB20602846F8E770B504462A2646
:104AC0000025002001F02EFB10F0007F02D00E2602
:104AD000304670BD4020EA49086010204860402000
:104AE00088600020C8604FF480600861084601F0CB
:104AF000FBFA1020FEF73AFA06462A2E01D030467D
:104B0000E7E7DE4800680004DD49086037204860B8
:104B1000402088600020C8604FF48060086108462B
:104B200001F0E2FA3720FEF721FA06462A2E01D0DC
:104B30003046CEE7D348D449086040204860602022
:104B400088600220C8600020086101204861084692
:104B500001F0EFFA0020CA4908600D2048604020AB
:104B600088600020C8604FF480600861084601F04A
:104B7000BBFA0D20FEF7FAF906462A2E01D0304680
:104B8000A7E70EE04FF4004001F018FB48B1002504
:104B900004E001F0F0FA44F825006D1C082DF8D36C
:104BA0002034BA48406B40F22A610842EAD008201B
:104BB00001F004FB28B1082001F00AFB042630466E
:104BC00087E7022001F0FAFA28B1022001F000FB89
:104BD000022630467DE7202001F0F0FA28B120209F
:104BE00001F0F6FA0626304673E74FF4007001F044
:104BF000E5FA30B14FF4007001F0EAFA07263046CA
:104C000067E703E001F0B7FA2060241D4FF40010BD
:104C100001F0D4FA0028F5D140F2FF5001F0D8FAA3
:104C2000403C002515E054F82500000654F82510F6
:104C300001F47F4140EA012054F8251001F47F017E
:104C400040EA112054F8251040EA116044F825008C
:104C50006D1C102DE7D330463BE770B500240025CE
:104C60008B480068012866D1C00301F0B4FAA8B1EE
:104C700000BF06E001F07FFA8649096841F8240088
:104C8000641C082CF6D383480068203081490860F2
:104C9000814800682030804908604CE04FF4804033
:104CA00001F099FA88B37D4800687B490968401A89
:104CB00020282BD27948006877490968401A10F0FB
:104CC000030F06D17548006873490968401A8008C7
:104CD00006E07248006870490968401A8008401C64
:104CE000054600240FE06E490968086801F046FA9D
:104CF000641C6B480068001D6949086066480068CC
:104D0000001D65490860AC42EDD314E0002406E0C4
:104D10006349096851F8240001F030FA641C082C3A
:104D2000F6D35F48006820305D4908605A48006843
:104D30002030594908604FF4807001F04CFAD8B324
:104D400053480068D0B10EE001F015FA51490968E6
:104D5000086050480068001D4E4908604E480068D1
:104D6000001D4D4908604FF4001001F027FA28B1EA
:104D700049480068494909688842E5D349480068BC
:104D8000012804D1FFF7ABFD4749087002E02A2053
:104D9000454908704FF4807001F027FA00214CF269
:104DA0003A3001F091F901204049086000203A4969
:104DB00008603D48007870BDFFE7022001F00BFA63
:104DC00070B1022001F011FA00214CF23A3001F0EA
:104DD0007BF9002030490860022033490870EAE777
:104DE000082001F0F8F970B1082001F0FEF9002167
:104DF0004CF23A3001F068F900202749086004209D
:104E000029490870D7E7202001F0E5F970B120208A
:104E100001F0EBF900214CF23A3001F055F9002095
:104E20001D490860062020490870C4E7102001F0E1
:104E3000D2F970B1102001F0D8F900214CF23A30CB
:104E400001F042F900201449086005201649087055
:104E5000B1E74FF4007001F0BEF948B34FF40070B1
:104E600001F0C3F900214CF23A3001F02DF9002095
:104E70000949086007200C4908709CE7640000207D
:104E8000EC450020FFFF0F0000460020008001409D
:104E900068000020840000207C0000206C000020BE
:104EA00080000020700000207400002078000020A6
:104EB000FFE72A207FE710B5FFF7CFFE10BD000007
:104EC00036490143364A1160704770B5002100230E
:104ED0000F22C4784CB3324C246804F4E064C4F567
:104EE000E0644FEA1421C1F1040322FA01F244788C
:104EF00004FA03F1847804EA020444EA01014FEA67
:104F00000111284C0678A155047804F01F054FF0D4
:104F1000010404FA05F405784FEA65154FF0E02620
:104F200006EB8505C5F8004109E0047804F01F058B
:104F30000124AC401C4D0678761145F8264070BD22
:104F40001A4A0A4002431A4B1A60704741B1194A83
:104F5000126842EA00024FF0E023C3F8102D07E088
:104F6000144A126822EA00024FF0E023C3F8102D21
:104F70007047042808D14FF0E021096941F004018D
:104F80004FF0E022116107E04FF0E021096921F0C4
:104F900004014FF0E0221161704700000000FA05A3
:104FA0000CED00E000E400E080E100E080FFFF1F86
:104FB00008ED00E010ED00E010B50446C248844260
:104FC00008D10121042000F014FB0021042000F08E
:104FD00010FB46E0BD48844208D10121082000F0C2
:104FE00008FB0021082000F004FB3AE0B8488442A6
:104FF00008D10121102000F0FCFA0021102000F05F
:10500000F8FA2EE0B348844208D10121202000F0B4
:10501000F0FA0021202000F0ECFA22E0AE488442B1
:1050200008D10121402000F0E4FA0021402000F0E6
:10503000E0FA16E0A948844208D10121802000F05E
:10504000D8FA0021802000F0D4FA0AE0A448844273
:1050500007D10121801500F0CCFA0021A01500F045
:10506000C8FA10BD10B50121084600F0C2FA0021AF
:10507000012000F0BEFA10BD2DE9F04102460025E6
:105080000026002000230024002791F803C00CF024
:105090000F0591F803C01CF0100F03D091F802C067
:1050A0004CEA0505B1F800C01CF0FF0F31D01468C0
:1050B00000202BE04FF0010C0CFA00F3B1F800C017
:1050C0000CEA03069E4220D183004FF00F0C0CFA2D
:1050D00003F7BC4305FA03FC4CEA040491F803C04F
:1050E000BCF1280F06D14FF0010C0CFA00FCC2F8FD
:1050F00014C00AE091F803C0BCF1480F05D14FF08D
:10510000010C0CFA00FCC2F810C0401C0828D1D3D6
:105110001460B1F800C0BCF1FF0F34DD546800200A
:105120002EE000F1080C4FF0010808FA0CF3B1F87A
:1051300000C00CEA03069E4221D183004FF00F0C01
:105140000CFA03F7BC4305FA03FC4CEA040491F89B
:1051500003C0BCF1280F05D100F1080C08FA0CF8C7
:10516000C2F8148091F803C0BCF1480F07D100F1D8
:10517000080C4FF0010808FA0CF8C2F81080401C27
:105180000828CED35460BDE8F0814FF6FF7101804E
:10519000022181700421C17070470246002093688B
:1051A0000B4201D0012000E00020704701468868D2
:1051B00080B2704702460020D3680B4201D0012024
:1051C00000E0002070470146C86880B27047016166
:1051D0007047416170470AB1016100E04161704769
:1051E000C16070474FF480320A43826181618261FD
:1051F000826982697047024600203A4B18684FF670
:105200008073184040EA02100843364B186070471C
:105210003549C8617047F0B50A46002300240021D3
:105220000025304E7168C0F3034583B200F4401688
:10523000B6F5401F08D121F070612A4E766826F03D
:105240007066284F7E6012E000F48016B6F5801F6D
:1052500006D1032606FA05F4A14341F0706106E089
:10526000460D360103FA06F6B14341F0706122B1F2
:10527000460D360103FA06F631431A4E7160F0BD51
:1052800030B500228B071C0F0F2303FA04F2154BD5
:1052900008338C1053F824309343124C08348D108B
:1052A00044F8253023468C1053F824308C07240F03
:1052B00000FA04F423430B4C08348D1044F82530D5
:1052C00030BD0A490860704700080140000C0140E9
:1052D000001001400014014000180140001C014072
:1052E000002001400000014000002042DC0020427C
:1052F000DB48006840F00100D94908600846406872
:10530000D8490840D649486008460068D649084050
:10531000D34908600846006820F4802008600846E9
:10532000406820F4FE0048604FF41F00886070471A
:10533000CB49096821F48031C94A116011460968D6
:1053400021F480211160B0F5803F03D0B0F5802FAB
:105350000ED106E0C249096841F48031C04A1160AB
:1053600007E0BF49096841F4A021BD4A116000E08F
:1053700000BF00BF704710B5014600220023002087
:105380004A11012A02D1B64C236806E0022A02D152
:10539000B34C236A01E0B24C636A01F01F0201249E
:1053A00094401C4201D0012000E0002010BD70B5E7
:1053B00000240025002600BF3120FFF7DCFF064651
:1053C000641CB4F5A06F01D0002EF5D03120FFF79A
:1053D000D2FF08B1012500E00025284670BD014636
:1053E00000209F4A106820F0F80040EAC1001060D9
:1053F00070479E490860704702460020984B5868E5
:1054000020F47C1042EA01031843954B5860704722
:1054100096490866704701460020914A506820F07E
:1054200003000843506070478D48406800F00C004E
:105430007047014600208A4A506820F0F000084377
:105440005060704701460020854A506820F4E060B3
:1054500008435060704701460020814A506820F49C
:10546000605040EAC1005060704729B17C4A527ACE
:1054700002437B4B5A7206E0794A527AC343DBB24D
:105480001A40774B5A727047794908607047014655
:105490000020734A506820F4404008435060704731
:1054A0000021744A11706E4A82F82010012802D03F
:1054B000042808D103E001216E4A117004E005219F
:1054C0006C4A117000E000BF00BF70476A49086075
:1054D00070476349096A0143614A1162704767492D
:1054E0000860704730B500210022002400235C4D85
:1054F0006D6805F00C0121B1042905D0082923D1DC
:1055000005E05F4D056022E05D4D05601FE0544DF4
:105510006D6805F47012524D6D6805F480340225F3
:1055200005EB92421CB9574D554305600BE04C4DBD
:105530006D6815F4003F03D0524D5543056002E0FD
:105540004F4D5543056002E04D4D056000BF00BF63
:10555000434D6D6805F0F00109094B4D6B5C056822
:10556000DD4045603E4D6D6805F4E061090A464D39
:105570006B5C4568DD408560394D6D6805F46051B0
:10558000C90A414D6B5C4568DD40C560344D6D68AE
:1055900005F44041890B3D4D6B5CC568B5FBF3F5E7
:1055A000056130BD29B12E4A526902432C4B5A6124
:1055B00004E02B4A52698243294B5A61704729B152
:1055C000274A92690243264B9A6104E0244A926971
:1055D0008243234B9A61704729B1214AD269024321
:1055E0001F4BDA6104E01E4AD26982431C4BDA6128
:1055F000704729B11A4AD2680243194BDA6004E0B5
:10560000174AD2688243164BDA60704729B1144AB0
:1056100012690243124B1A6104E0114A1269824373
:105620000F4B1A6170471A49086070470F49C864E8
:1056300070470B49C87170470948406A40F0807054
:1056400007494862704701460020054A92680A42AD
:1056500001D0012000E000207047014988727047A6
:10566000001002400000FFF8FFFFF6FE000042427B
:10567000D800424220100240800442423C04424290
:1056800000127A0000093D008800002098000020E8
:105690004004424230B943F2DB014FF0204242F86D
:1056A000201005E043F2D2014FF0204242F82010D2
:1056B0006FF07042411C4FF0204343F82120114607
:1056C0001A4602EB8002C2F80411704710280AD172
:1056D00018214FF020421166402151664FF0FC31F5
:1056E0009166D16610E01821FC4A11604FF040012C
:1056F0004FF02042C2F884104FF0FC31F84A11609C
:105700004FF02042C2F88C1070471820F54908600D
:105710004FF000004FF02041C1F8A4004FF0FC30E2
:10572000F149086001F10401086001F10401086019
:105730007047D0E901121143C26811430269114355
:105740004269114382691143C2691143026A1143DC
:10575000426A1143826A1143C26A11434FF02043E7
:10576000026843F822108168082908D11A460168A6
:1057700052F8211041F04001026843F82210016BF9
:105780000968026B526841EA0211026B926841EAB1
:105790000221026BD26841EA0241026B126941EABE
:1057A0000251026B526941EA0261026B9269114334
:1057B0000268521C4FF0204343F82210816AB1F571
:1057C000804F1AD1416B0968426B526841EA02115D
:1057D000426B926841EA0221426B126941EA02512E
:1057E000426B526941EA0261426B9269114302685D
:1057F00003EB8202C2F8041108E06FF070414FF031
:105800002043026803EB8202C2F80411704730B5EE
:10581000002100220023446844F0080485682C43DA
:10582000C5682C4305692C43456944EA45248569CC
:1058300044EA4531C4692468C5696D6844EA0524B1
:10584000C569AD6844EA0544C569ED6844EA056286
:10585000046A2468056A6D6844EA0524056AAD682F
:1058600044EA0544056AED6844EA05630468102CBF
:1058700005D14FF020442166A266E36607E0974C0D
:1058800021604FF02044C4F88820984C236030BD3C
:10589000016841F01001426841EA4221826841EA10
:1058A0004231904A1160C1680968C268526841EA91
:1058B0000221C268926841EA0241C268D26841EAA4
:1058C0000261894A1160016909680269526841EA06
:1058D00002210269926841EA02410269D26841EA02
:1058E0000261834A1160416909684269526841EA6C
:1058F00002214269926841EA02414269D26841EA62
:1059000002614FF02042C2F8B010704700210160E0
:105910000221416000218160C160016141618161BA
:10592000C1614FF4805101624900416200218162EE
:10593000C1620F21026B1160026B5160FF21026B8B
:1059400091600F21026BD160026B1161026B51619A
:105950000021026B91610F21426B1160426B51601B
:10596000FF21426B91600F21426BD160426B11614C
:10597000426B51610021426B9161704710210160BF
:10598000002141608160C160016141618161FC2150
:10599000C2691160C2695160C2699160C269D16017
:1059A000026A1160026A5160026A9160026AD16003
:1059B00070470021016041608160FC21C268116074
:1059C000C2685160C2689160C268D16002691160AA
:1059D00002695160026991600269D1604269116097
:1059E00042695160426991604269D160704751B12A
:1059F0004FF0204252F8202042F001024FF02043A5
:105A000043F8202009E04FF0204252F82020394B83
:105A10001A404FF0204343F82020704799B11028D6
:105A200008D14FF02042126E42F004024FF02043A2
:105A30001A661DE0294A126842F004024FF0204322
:105A4000C3F8802014E0102809D14FF02042126ED4
:105A5000284BDB1E1A404FF020431A6608E01F4A0D
:105A60001268254B02EA03024FF02043C3F880205E
:105A7000704740B11B49096841F004014FF02042D2
:105A8000C2F8A01008E0174909681B4A01EA0201A0
:105A90004FF02042C2F8A010704799B1102808D1E9
:105AA0004FF02042126E42F040024FF020431A663F
:105AB0002DE00A4A126842F040024FF02043C3F83A
:105AC000802024E0102819D14FF02042126E0A4B9A
:105AD0003C3B1A404FF020431A6618E0800000A0BB
