:020000040800F2
:10000000000400204B030008D90D0008DB0D000898
:10001000DF0D0008E30D0008E70D000800000000F8
:10002000000000000000000000000000EB0D0008D0
:10003000ED0D000800000000EF0D0008F10D0008B4
:100040006B0300086B0300086B030008CD860008F3
:100050006B0300086B0300086B0300086B030008C8
:100060006B0300086B0300086B0300086B030008B8
:100070006B0300086B0300086B0300086B030008A8
:100080006B0300086B0300086B0300086B03000898
:100090006B0300086B0300086B030008930A000859
:1000A0006B0300086B0300086B0300086B03000878
:1000B000AB0700086B0300086B0300086B03000824
:1000C0006B0300086B0300086B0300086B03000858
:1000D0006B030008850D00086B0300086B03000824
:1000E0006B0300086B0300086B0300086B03000838
:1000F0006B0300086B0300086B0300086B03000828
:100100006B0300083B4500086B0300086B03000805
:100110006B0300086B0300086B0300086B03000807
:100120006B0300086B0300086B0300086B030008F7
:1001300000F002F800F067F80AA090E8000C824492
:100140008344AAF10107DA4501D100F05CF8AFF26F
:10015000090EBAE80F0013F0010F18BFFB1A43F0A5
:100160000103184790FB0000B0FB00000A444FF069
:10017000000C10F8013B13F0070408BF10F8014B06
:100180001D1108BF10F8015B641E05D010F8016B4B
:10019000641E01F8016BF9D113F0080F1EBF10F8AF
:1001A000014BAD1C0C1B09D16D1E58BF01F801CBD2
:1001B000FAD505E014F8016B01F8016B6D1EF9D555
:1001C0009142D6D37047000000230024002500266A
:1001D000103A28BF78C1FBD8520728BF30C148BFAA
:1001E0000B607047642908F05D83752908F05A8315
:1001F000782908F09183002070471FB509F09EF917
:100200001FBD10B510BD08F0EBFC1146FFF7F5FF60
:1002100000F0ABF908F009FD03B4FFF7F2FF03BCEF
:1002200000F04AFD00210020434A126842F4803267
:10023000414B1A6000BF404A126802F40030491C6A
:1002400010B9B1F5A06FF6D13B4A126812F4003F25
:1002500001D0012000E00020012843D1374A126874
:1002600042F01002354B1A601A46126822F003025F
:100270001A601A46126842F002021A602E4A526848
:100280002D4B5A601A4652685A601A46526842F418
:1002900080625A601A46526822F47C125A601A46EA
:1002A000526842F4E8125A601A46126842F08072AC
:1002B0001A6000BF204A126812F0007FFAD01E4A6E
:1002C000526822F003021C4B5A601A46526842F0F0
:1002D00002025A6000BF184A526802F00C02082A53
:1002E000F9D101E000BFFEE7704710B5FFF79AFFB4
:1002F00010BD10B51048006840F001000E490860BC
:10030000084640680E4908400B49486008460068A6
:100310000C490840084908600846006820F480201D
:1003200008600846406820F4FE0048604FF41F0053
:100330008860FFF7DAFF10BD001002400020024085
:100340000000FFF8FFFFF6FE70470B4880470B499F
:1003500081F308880A480047FEE7FEE7FEE7FEE76C
:10036000FEE7FEE7FEE7FEE7FEE7FEE70548064993
:10037000064A074B7047000049030008A03A0020D6
:1003800031010008A0320020A03A0020A036002051
:10039000A03600201CB50121092004F052FC0521E3
:1003A000012004F0AFFA2020009000208DF8040016
:1003B0000C208DF8050001208DF80600684600F03D
:1003C00028FD1CBD0EB50121084604F047FC4FF086
:1003D000804000F0ADFD4FF0804001F0B0F84FF4E8
:1003E0007A70ADF804004720ADF800000020ADF8A9
:1003F0000600ADF8020069464FF0804000F0FAFDBB
:100400000121880701F013FB00214FF0804001F02B
:100410005AF901221146900701F072F8012188076C
:1004200001F053F80EBD10B50121084604F0FCFBA5
:10043000FC4805F039FAFC48FC490860FC48486073
:100440001020886042F6A000C8600020086180206B
:10045000486100208861C86108624FF4005048621A
:1004600000208862EF4805F0BEFA10BD08B50121F2
:10047000582004F0E6FB2020ADF8000004208DF8A1
:1004800003006946EB4804F039F94FF40050ADF829
:10049000000048208DF803006946E74804F02EF973
:1004A0001F20ADF8000048208DF803006946E3489E
:1004B00004F024F908BD08B50121212004F0C1FB96
:1004C0004FF44150ADF8000010208DF803000320D8
:1004D0008DF802006946DA4804F010F908BD08B545
:1004E00000214FF0006004F06DF84FF4A06004F0BC
:1004F00029F817208DF8000001208DF80100002058
:100500008DF8020001208DF80300684604F01FF802
:1005100031208DF8000003208DF8010000208DF8B7
:10052000020001208DF80300684604F010F81C203A
:100530008DF8000002208DF8010000208DF80200E7
:1005400001208DF80300684604F001F803208DF8BF
:10055000000000208DF801008DF8020001208DF8C8
:100560000300684603F0F3FF08BD08B54FF000082C
:100570000024B4480568B448D0F8EC67B34807686D
:10058000FFF7B7FEFFF7ABFF00F0C4FB4FF4E1301D
:1005900000F0E0FBFFF78FFFFFF768FFFFF743FF77
:1005A00007F02CFEFFF70EFF01F095FBFFF7F2FEC0
:1005B0004FF4FC60A64908800020A6490880A64B9D
:1005C0000093292337220021084601F04CFDA3A007
:1005D00008F034F93B4632462946A9A008F02EF926
:1005E000B2A228211E2001F0BDFC08F012F8B4A22E
:1005F00005217C2001F0B6FCB5A21421AA2001F04F
:10060000B1FC0120B549086005F018FEB449087036
:100610000846007828B108460178B2A008F00EF923
:100620000AE0B5A008F00AF9BCA24FF48C710020D2
:1006300001F098FC00BFFEE700240DE02146BAA0BF
:1006400008F0FCF82246FF21A548007805F070FC70
:1006500005F034FE601CC4B2022CEFDB0022FF2147
:100660009F48007805F064FCB2A008F0E7F805F0B8
:1006700059FFB6A008F0E2F806F0F1FBB9A008F0C7
:10068000DDF806F0EDFBBDA008F0D8F806F0E9FBB8
:1006900007F070F907F0C1F90022FF2190480078B7
:1006A00005F046FC07F092F907F0A1F96FE0B948B0
:1006B000807840456BD04FF6FF7065490880B5489B
:1006C00090F802808288042305217C2001F02AFD15
:1006D000B048827902230521AC2001F023FDAD480A
:1006E000C27902230521CC2001F01CFDA948007A23
:1006F00007282FD2DFE800F0040A10161C22280079
:10070000A5A21421852001F02DFC23E0A4A2142130
:10071000852001F027FC1DE0A3A21421852001F013
:1007200021FC17E0A2A21421852001F01BFC11E09E
:10073000A1A21421852001F015FC0BE0A0A2142138
:10074000852001F00FFC05E09FA21421852001F017
:1007500009FC00BF00BF8F48027802231421AA20A1
:1007600001F0E0FC8B48427802231421C22001F002
:10077000D9FC8848827802231421DA2001F0D2FCC7
:10078000934800686FEA00009249C1F898018EE72B
:1007900002460B46002100BF03E0585C5054481C41
:1007A000C1B20D29F9DB0120704710B5012188077E
:1007B00001F040F9E8B10121880701F04CF98648C1
:1007C0000088401C8449088084480088401E834972
:1007D000088081480088B0F5FA7F0AD18048006817
:1007E0006FEA00007B49C1F8B0014FF000007A4980
:1007F000088010BD7949088000BF78490988002920
:10080000FBD17047002109E0002201E0531C9AB29D
:1008100042F614039A42F9DB4B1C99B28142F3DB96
:100820007047000044000240043801406831002055
:1008300088010020000C0140001001400018014018
:1008400000140140E8F7FF1F00F0FF1FF0F7FF1F43
:10085000500000205200002080E900083C2D2D2D82
:100860002D2D202053544D333220455642205445DF
:10087000535420202D2D2D2D2D3E0D0A000000005B
:10088000556E6971756520446576696365204944D4
:100890002C203936204269743A20253038582C25CE
:1008A0003038582C253038582E0D0A003C3C535413
:1008B0004D33322045564220546573743E3E00004D
:1008C00020202020A67E2020A4EB2020A4E90000E8
:1008D00020203A20203A202000000000B48122424B
:1008E0003D00002049324320416464726573733ACD
:1008F00020307825780D0A004572726F723A2049CF
:1009000032432041646472657373206E6F74206695
:100910006F756E642121210D0A0000004E6F204387
:10092000502121210000000050614765203A202518
:10093000640D0A00636F6E73747275637446756E2E
:100940006331312072756E210D0A0000636F6E7382
:10095000747275637446756E6330312072756E21E2
:100960000D0A0000636F6E73747275637446756E62
:100970006333342072756E210D0A0000636F6E734D
:10098000747275637446756E6335342072756E21AA
:100990000D0A00003432002053756E2E0000000056
:1009A0004D6F6E2E000000005475652E0000000093
:1009B0005765642E000000005468752E000000008A
:1009C0004672692E000000005361742E0000000082
:1009D00098812242008022423A0000203E000020FE
:1009E000B081224200B56748007880B3664800684D
:1009F00070B16648006858B16548006840B1654804
:100A0000006828B16448006810B164480068F0B913
:100A10000A20FFF7F7FE00205A4908705A4800687C
:100A200008B9012000BD5948006808B90220F9E75B
:100A30005748006808B90320F4E75648006808B929
:100A40000420EFE75448006810B90520EAE704E005
:100A500052480068D8B90620E4E74B4800680128EE
:100A600015D14A480068012811D149480068012879
:100A70000DD148480068012809D14748006801287D
:100A800005D146480068012801D13E490870002080
:100A9000C8E72DE9F0470125022604274FF0080892
:100AA0004FF010094FF0200A202000F01FFAF0B399
:100AB0003B4801680068401C394B186039A007F0BA
:100AC000BDFE4248007805F0B9FA00F00F00404939
:100AD00008700846007830B1084602783B48017833
:100AE0003CA007F0ABFE39480078401CC0B205F0CE
:100AF000A5FA00F03F04224634480178491C3FA083
:100B000007F09CFE2C4202D046A007F097FE34422C
:100B100002D04AA007F092FE3C4204D04DA007F05C
:100B20008DFE06F0A9FF14EA080F04D000E019E0DA
:100B30004EA007F083FE14EA090F02D051A007F07F
:100B40007DFE14EA0A0F02D053A007F077FE584842
:100B500000686FEA00005749C1F8B4014FF0200067
:100B600000F0D5F9BDE8F087002107E0002201E0A0
:100B7000531C9AB2092AFBDB4B1C99B28142F5DB6C
:100B8000704770473C00002034012242000123429C
:100B900004012342080123420C0123421001234295
:100BA0003400002045585449395F355F4952514857
:100BB000616E646C65725F4154544E20617373655D
:100BC000727421212025640D0A0000009A00002083
:100BD000390000204630315F524D495F44617461F5
:100BE000303A307825782C20537461747573204323
:100BF0006F64653A307825782E0D0A004630315FF3
:100C0000524D495F44617461313A20307825782C27
:100C100020696E745F7374617475733A30782578E7
:100C20002E0D0A00496E7420736F757263653A2049
:100C3000466C6173682E0D0A00000000496E742036
:100C4000736F757263653A205374617475732E0DFA
:100C50000A000000496E7420736F757263653A2054
:100C6000416273302E20202000000000496E742065
:100C7000736F757263653A20416E616C6F672E0DFC
:100C80000A000000496E7420736F757263653A2024
:100C90004C65642E0D0A0000496E7420736F7572E6
:100CA00063653A20427574746F6E2E0D0A00000061
:100CB000B481224200802242014600BF704770B5D5
:100CC00004460D4600BF80213D4804F0A8FC0028E2
:100CD000F9D0A1B23A4804F04BFC204670BD10B5E3
:100CE000044600BF8021364804F099FC0028F9D062
:100CF0002146334804F03CFC10BD10B500BF202154
:100D00002F4804F08CFC0028F9D02D4804F034FC66
:100D1000C0B210BD08B5012144F2040003F091FFF8
:100D20004FF40070ADF8000018208DF80300032088
:100D30008DF802006946234803F0E0FC4FF4806020
:100D4000ADF8000004208DF8030069461D4803F04B
:100D5000D5FC08BD1FB5044600940020ADF8040082
:100D6000ADF80600ADF80800ADF80C000C20ADF8A9
:100D70000A006946124804F01AFB0121104804F0E9
:100D800087FB1FBD10B540F225510D4804F05DFCF6
:100D900040F225510A4804F082FC094804F0ECFBBB
:100DA000C4B2214608A007F049FD08A007F046FD9F
:100DB000074800686FEA00000649C1F8B40110BD99
:100DC0000038014000080140256400000A0D0000C1
:100DD000B481224200802242704700BFFEE700BF7C
:100DE000FEE700BFFEE700BFFEE7704770477047B1
:100DF000704700000020474908604749C1F80404D3
:100E00004649086001F10401086045484549086009
:100E1000704700213F498279DAB33F4AD2F8002473
:100E200003689A433C4BC3F800241A46D2F80424C2
:100E300003689A4301F104031A60027911440A68B5
:100E4000036842EA03020A60334AD2F808240368BE
:100E500022EA0302304BC3F808241A46D2F80C24C5
:100E6000036822EA0302304B1A604279102A11D13A
:100E7000294AD2F8082403681A43274BC3F80824E8
:100E80001A46D2F80C2403681A43234BC3F80C24E7
:100E90000EE007E01F49427911440A6803681A43CB
:100EA0000A6005E0027911440A6803689A430A60FF
:100EB00070470021016001710C2141710021817195
:100EC00070471A49096841EA0001134AC2F8101430
:100ED000704701460020134A12680A4201D00120DF
:100EE00000E0002070470F4908607047014600206D
:100EF0000022084B1B6803EA0102074BD3F81434A5
:100F00000B4202D00AB1012000E0002070470549E1
:100F100008607047000401400000014008040140DF
:100F2000FFFF0F00140401400C04014010040140B5
:100F300010B50446FB48844208D10121C01403F0D7
:100F40009AFE0021E01403F096FE52E0B4F1804FC7
:100F500008D10121084603F09BFE0021012003F087
:100F600097FE46E0F048844208D10121022003F0B8
:100F70008FFE0021022003F08BFE3AE0EB48844212
:100F800008D10121042003F083FE0021042003F096
:100F90007FFE2EE0E648844208D10121082003F0BC
:100FA00077FE0021082003F073FE22E0E14884422E
:100FB00008D10121102003F06BFE0021102003F066
:100FC00067FE16E0DC48844208D10121202003F0AE
:100FD0005FFE0021202003F05BFE0AE0D748844238
:100FE00007D10121401403F046FE0021601403F0F4
:100FF00042FE10BD028802F08F020280CA884B8830
:101000001A4303881A4302808A8882850A880285E7
:10101000C44A904202D0C94A904201D10A7A02865B
:1010200001228282704770B5002400220023058CC3
:101030004FF6FE7635400584028C8388048B4FF68C
:101040008F752C400D882C43751E2A400D892A432C
:101050004D882A43CD888586B24DA84202D0B74D2F
:10106000A84213D14FF6F7752A404D892A434FF60F
:10107000FB752A408D882A4347F6FF652B4047F6CB
:10108000FF552B408D892B43CD892B4383800483CF
:10109000028470BD70B5002400220023058C4FF639
:1010A000EF7635400584028C8388048B48F6FF7503
:1010B0002C400D882D0644EA15444FF6DF752A4072
:1010C0000D892D0542EA15424D882D0542EA15424B
:1010D000CD880587934DA84202D0984DA8421BD1D8
:1010E0004FF67F752A404D892D0542EA15424FF68D
:1010F000BF752A408D882D0542EA154247F6FF3517
:101100002B4047F2FF752B408D89AD0443EA154310
:10111000CD89AD0443EA154383800483028470BD06
:1011200070B5002400220023058C4FF6FF66354081
:101130000584028C8388848B4FF68F752C400D8834
:101140002C434FF6FF552A400D892D0642EA1542E1
:101150004D882D0642EA1542CD888587714DA842FB
:1011600002D0764DA8421BD14FF2FF752A404D891F
:101170002D0642EA15424FF6FF352A408D882D068E
:1011800042EA154246F6FF752B4045F6FF752B40A7
:101190008D892D0543EA1543CD892D0543EA154375
:1011A00083808483028470BD70B5002300220024F4
:1011B000058C4EF6FF7635400584028C8488838B3F
:1011C00048F6FF752B400D882D0643EA15434DF672
:1011D000FF752A400D892D0742EA15424D882D07DB
:1011E00042EA1542CD88A0F840504E4DA84202D0A8
:1011F000524DA84205D1C4F30D048D89AD0544EAD2
:10120000154484808383028470BD828B4FF2FF3348
:101210001A408283828B0B0642EA13428283704714
:10122000F0B50C461546002100220026078C4EF62C
:10123000FF7C07EA0C070784818B028C27073E0C92
:1012400040F6FF4739402F0641EA17411F0741EAA0
:1012500017414DF6FF773A4046F480573A43818371
:101260000284F0BD828B4FF6F3731A408283828B27
:101270000A4382837047F0B50C46154600210022D0
:101280000026078C4FF6FF6C07EA0C070784818B5A
:10129000028C27063E0C4FF60C7739401F0545EAB5
:1012A000174739434FF6FF573A4046F480773A43A1
:1012B00081830284F0BD028B4FF2FF331A40028318
:1012C000028B0B0642EA134202837047F0B50C46CC
:1012D0001546002100220026078C4FF6EF7C07EA16
:1012E0000C070784018B028C27053E0C40F6FF4754
:1012F00039401F0741EA17412F0641EA17414FF6CF
:10130000DF773A4046F010073A4301830284F0BD8C
:10131000028B4FF6F3731A400283028B0A43028357
:1013200070470000002C014000040040000800400D
:10133000000C004000100040001400400034014048
:10134000F0B50C46154600210022068C4FF6FE77BC
:101350003E400684018B028C4FF60C7631401E0510
:1013600045EA164631437E1E324044F001063243C0
:1013700001830284F0BD70B505460C46208850B943
:101380002389A28861882846FFF7DAFFE18828468A
:10139000FFF7BEFF25E0208804280AD12389A28810
:1013A00061882846FFF792FFE1882846FFF783FF10
:1013B00017E0208808280AD12389A2886188284656
:1013C000FFF759FFE1882846FFF74CFF09E0238922
:1013D000A28861882846FFF723FFE1882846FFF7A7
:1013E00014FF70BD2DE9F04105460C46002601278B
:1013F000608808B9022600E00026A088012801D1F3
:10140000022700E001272088A0B92389A2886188EB
:101410002846FFF795FFE1882846FFF779FF2389E3
:101420003A4631462846FFF751FFE1882846FFF744
:1014300042FF13E02389A28861882846FFF746FF10
:10144000E1882846FFF737FF23893A463146284688
:10145000FFF776FFE1882846FFF75AFFBDE8F081E5
:101460000A884B881A438B881A43CB881A430B8906
:101470001A434B891A438B891A43A0F844207047BA
:101480004FF6FF71818000210180C180418001728F
:1014900070470021018041808180C18001814181AC
:1014A0008181C181704700210180418001218180BB
:1014B0000021C1800181704700210180418081802D
:1014C000C180018141818181704721B1028842F050
:1014D0000102028004E0028840F2FE331A400280DA
:1014E000704731B1B0F8442042F40042A0F84420E3
:1014F00005E0B0F84420C2F30E02A0F84420704783
:1015000010B51AB183890B43838104E08389CC43EE
:10151000A4B22340838110BD8182704741EA020357
:10152000A0F84830704710B51AB183890B43838106
:1015300004E08389CC43A4B22340838110BD018998
:101540004FF6F8721140018170470A460021018967
:101550004FF68F73194011430181704730B504462F
:101560000D4629462046FFF7F0FF208940F007008E
:10157000208130BD2DE9F04104460D4616461F4638
:10158000602D06D13B46012231462046FFF79EFEE4
:1015900005E03B46012231462046FFF7D1FE2946B1
:1015A0002046FFF7D2FF208940F007002081BDE8E8
:1015B000F08130B50C4600210189C9B21D0642EA0E
:1015C000154525432943018130BD2DE9F0410546EC
:1015D0000E4617469846002443463A46314628466A
:1015E000FFF7E7FF2C894FF6F8710C4044F0070431
:1015F0004FF68F710C4044F070042C81BDE8F081EF
:10160000F0B504460D4616461F463B46324629466F
:101610002046FFF7CEFF208940F480402081F0BDB6
:101620000185828270470A460021018840F28F338B
:101630001940114301807047F0B50C4615461E460F
:101640000021002200230189028B038C4FF6F877DA
:10165000394021434FF6FC473A4040F201173A43E4
:101660004FF6DD773B40370545EA17473B4301819D
:1016700002830384F0BD0A460021018B4FF68F736D
:1016800019401143018370470A460021018B48F637
:10169000FF731940130641EA1341018370470A465C
:1016A0000021818B4FF68F7319401143818370475E
:1016B0000A460021818B48F6FF731940130641EA60
:1016C00013418183704721B1028842F08002028079
:1016D00004E0028840F27F331A400280704721B153
:1016E000828842F00402828004E082884FF6FB7315
:1016F0001A408280704721B1828842F008028280BD
:1017000004E082884FF6F7731A408280704721B157
:10171000828842F00102828004E082884FF6FE73E4
:101720001A40828070470A460021018B4FF6F773FA
:1017300019401143018370470A460021018B4FF283
:10174000FF731940130641EA1341018370470A46AB
:101750000021818B4FF6F773194011438183704745
:101760000A460021818B4FF2FF731940130641EAAC
:101770001341818370470A460021018B4FF6FB73AA
:1017800019401143018370470A460021018B4FF62F
:10179000FF331940130641EA1341018370470A469B
:1017A0000021818B4FF6FB731940114381837047F1
:1017B0000A460021818B4FF6FF331940130641EA98
:1017C0001341818370470A460021018B4FF67F73D6
:1017D00019401143018370470A460021018BC1F370
:1017E0000E01130641EA1341018370470A460021A6
:1017F000818B4FF67F7319401143818370470A46EE
:101800000021818BC1F30E01130641EA134181834C
:1018100070470A460021018C4FF6FD7319401143B1
:10182000018470470A460021018C4FF6F773194076
:101830001143018470470A460021018C4FF6DF7383
:101840001940130541EA1341018470470A460021FB
:10185000018C4FF67F731940130541EA134101844F
:1018600070470A460021018C4FF6FF5319401306BA
:1018700041EA1341018470470A460021018C4FF26E
:10188000FF731940130641EA1341018470470A4669
:101890000021018C4DF6FF731940130741EA1341F3
:1018A0000184704730B5002301248C40A3B2048C1E
:1018B000DD43ADB22C400484048C02FA01F5ADB2D4
:1018C0002C43048430BD30B5002304248C40A3B2E3
:1018D000048CDD43ADB22C400484048C02FA01F583
:1018E000ADB22C43048430BD70B503460020002403
:1018F0001846183001258D40ACB21D8CE643B6B2B7
:1019000035401D8409B108290AD100EB6100056842
:101910004FF68F76354005600568154305600DE08C
:101920000D1FADB200EB6500056848F6FF76354047
:1019300005600568160645EA1645056070BD21B1CB
:10194000028842F00202028004E0028840F2FD3385
:101950001A400280704721B1028842F004020280DE
:1019600004E0028840F2FB331A400280704721B144
:10197000828842F08002828004E082884FF67F7382
:101980001A4082807047028840F2F7331A40028082
:1019900002880A430280704782884FF68F731A408C
:1019A000828082880A438280704702894FF6F873EA
:1019B0001A40028102890A430281704702894FF668
:1019C0007F731A40028102890A4302817047818431
:1019D000704781857047818670470187704781878E
:1019E0007047A0F8401070470288D2B20280028887
:1019F0000A43028070470146888E70470146088F6F
:101A000070470146888F70470146B1F84000704723
:101A10000146888C70470146088D704702460020B9
:101A2000138A0B4201D0012000E000207047CA4316
:101A30000282704730B50246002000230024158A38
:101A400005EA0103958905EA010413B10CB10120EF
:101A500000E0002030BDCA430282704739B1554AC8
:101A6000128842EA0002544BA3F8002809E0514AC8
:101A700012886FEA00039BB202EA03024E4BA3F8FE
:101A8000002870474D48008840F010004A49A1F8EE
:101A900004087047494800884FF6EF7100EA0100DA
:101AA0004549A1F80408704700214548018842488B
:101AB000B0F8180841EA0040704700B50246FFF749
:101AC000E1FF100C3F4908803B49A1F81C28FFF7B3
:101AD000E1FF00BD00B50246FFF7D4FFC2F30340AB
:101AE000394908803449A1F80C28FFF7D3FF00BD1D
:101AF00000B50246FFF7C6FF100C344908802E4996
:101B0000A1F82428FFF7C6FF00BD0020304909884E
:101B10004FEA01714FEA11302749B1F8141841EA30
:101B20000000704700BF2548008810F0200FFAD051
:101B30007047224800884FF6F77100EA01001E49FD
:101B4000A1F8040800BF1D48008810F0080FFAD063
:101B5000704701460020194A12880A4201D001202C
:101B600000E000207047154909886FEA000292B230
:101B700001EA0201104AA2F8041870470146002049
:101B80000E4A128802EA0102D0B20B4AB2F80028CB
:101B90000A4202D008B1012000E000207047074946
:101BA00009886FEA000292B201EA0201024AA2F831
:101BB000041870470028004000200040042800401E
:101BC0001C28004018280040082800402028004019
:101BD0001028004001464FF0C0421180FD4A108895
:101BE00070474FF0C0421080FA4A1180704700B52C
:101BF00095B0022000900020019005200290002066
:101C00000390049005904FF08050069000200790BC
:101C100008900820099010200A9000200B900C904A
:101C20000D900E904FF480500F9000201090119066
:101C30001290CDF84CD0CDF850D007A803F0BBF8E7
:101C40000121002003F015FA0121080202F0ECFF47
:101C500015B000BD08B50121612002F0F2FF4CF67D
:101C6000B370ADF8000003208DF8020018208DF845
:101C700003006946D84802F041FD4FF68070ADF888
:101C8000000003208DF8020018208DF8030069463B
:101C9000D24802F033FD08BD10B503460C46194684
:101CA0004E20FFF79EFF21464F20FFF79AFF10BD01
:101CB00030B5044600210846FFF7EEFF22204FF022
:101CC000C0410880002502E0C24804806D1CB5F5C3
:101CD000963FF9D330BD10B5FFF789FFFFF7BAFF84
:101CE0000020FFF777FFBE49088008460188BDA0A5
:101CF00006F0A4FDBA480088A0F5094199397ED1C3
:101D000001210020FFF76DFF43F63F310120FFF76F
:101D100068FF4FF4C0610220FFF763FF07210C202A
:101D2000FFF75FFF06210D20FFF75BFF4FF44851DF
:101D30000E20FFF756FFBB211E20FFF752FF46F68D
:101D400064210320FFF74DFF00210F20FFF749FF1B
:101D50004FF46F414420FFF744FF00214520FFF777
:101D600040FF40F23F114620FFF73BFF00213020AB
:101D7000FFF737FF40F206713120FFF732FF40F2E4
:101D800006213220FFF72DFF4FF440713320FFF77B
:101D900028FF02213420FFF724FF00213520FFF720
:101DA00020FF40F207713620FFF71BFF4FF4007150
:101DB0003720FFF716FF40F608113A20FFF711FF12
:101DC00040F60D713B20FFF70CFF06212820FFF79E
:101DD00008FF41F2EB212F20FFF703FF4FF4E04112
:101DE0002620FFF7FEFE4BF2E3012020FFF7F9FE6D
:101DF00044212720FFF7F5FE47F6456100E012E099
:101E00002E20FFF7EEFE00211020FFF7EAFE032050
:101E1000FEF7F8FC46F670011120FFF7E2FE3321D1
:101E20000720FFF7DEFE0020FFF742FF10BD2DE97F
:101E3000F04780460C4692461D46DDF8209000266D
:101E400012E0A01981B24046FFF726FF22204FF092
:101E5000C0410880002703E05E48A0F800907F1C86
:101E6000281BB842F8D8761C281BB042E9D8BDE838
:101E7000F0872DE9F04782460E469046374600240B
:101E800026E039465046FFF707FF22204FF0C041B9
:101E90000880A8F12000574901EB001010F80490C9
:101EA00000250FE009FA05F010F0800F04D0524829
:101EB00000884849088003E0504800884549088068
:101EC000681C85B2082DEDDB781C87B2601C84B2DB
:101ED000102CD6DB0820BDE8F0872DE9F04788B04C
:101EE00082460F469046C14600240FE039F8020BA7
:101EF0002DF814003DF81400000A3DF81410C9B282
:101F000040EA01202DF81400601C84B2102CEDDB97
:101F10003E46002420E031465046FFF7BDFE222019
:101F20004FF0C0410880002510E03DF81400A840A3
:101F300010F4004F04D0304800882649088003E0A0
:101F40002E48008823490880681C85B2102DECDBE0
:101F5000701C86B2601C84B2102CDCDB102008B030
:101F6000BDE8F0872DE9F04706460D4614464FF0D0
:101F70000008C146DFF8889071E006EB080086B2E1
:101F8000207800B96CE0207880283BDD06F1100055
:101F9000F0280DDD002605F1100085B2B5F5A07F13
:101FA00006DD0020064605464FF6FF70FFF780FE6F
:101FB000204600F0DDF9074607EB071009EB40006B
:101FC000821C29463046FFF788FF00F0FF08A41C5A
:101FD00044E00000000002600014014000180140CD
:101FE0005800002044657669636549443D30782592
:101FF000780D0A004A950008500000205200002089
:102000004A9B000820780D2809D105F1100085B2FF
:10201000F02D00DD0025641C4FF000081FE0207843
:102020000A2804D10026641C4FF0000817E0E82EAF
:102030000DDD002605F1100085B2B5F5987F06DDAF
:102040000020064605464FF6FF70FFF731FE227866
:1020500029463046FFF70DFF8046641C00BF8CE721
:1020600000BFBDE8F0872DE9F04104460E46154655
:10207000DDF8188047466019401E44EA002081B20E
:102080004420FFF7AEFD31464520FFF7AAFDF018CA
:10209000401E81B24620FFF7A4FD21464E20FFF7E7
:1020A000A0FD31464F20FFF79CFD22204FF0C0419C
:1020B00008800020AA49088015E00020A94908806E
:1020C00008E037F8020BA8490880A6480088401CA1
:1020D000A4490880A3480088A842F2DBA0480088F1
:1020E000401C9F4908809E4800889842E5DB4FF4D9
:1020F0006F414420FFF775FD00214520FFF771FD7A
:1021000040F23F114620FFF76CFDBDE8F08110B5AD
:102110000246012000E050430B00A1F10104E1B2AE
:10212000F9D110BD2DE9F0470646894690461D4677
:102130004FF0000A00242AE0281B401EC1B20A20EA
:10214000FFF7E5FFB8FBF0F00A21B0FBF1F201FB6D
:102150001200C7B2BAF1000F0DD1681EA0420ADD0D
:102160003FB9082101FB046020224946FFF781FEA8
:102170000BE04FF0010A082101FB046007F1300178
:10218000CAB24946FFF775FE00BF601CC4B2AC423C
:10219000D2DBBDE8F08722204FF0C04108807047B5
:1021A00071490880704730B504460D4629462046DF
:1021B000FFF772FDFFF7EFFF6C480088FFF7F0FFB5
:1021C00030BD2DE9FF4F84B081468A460020039040
:1021D00002900698A0EB09050798A0EB0A06CDF837
:1021E0000490CDF800A0002D01DD012705E00DB918
:1021F000002702E04FF0FF376D42002E02DD4FF066
:10220000010806E016B94FF0000802E04FF0FF3871
:102210007642B54201DD2C4600E034464FF0000B1B
:1022200021E0009881B2019880B2FFF7BCFF0398CB
:10223000284403900298304402900398A04205DDA0
:102240000398001B03900198384401900298A04223
:1022500005DD0298001B02900098404400900BF1AD
:1022600001001FFA80FB601C8345DADD08B0BDE881
:10227000F08F2DE9F04306460F4690460024454670
:102280000320A0EB480948E03A1B91B2721B90B2C0
:10229000FFF789FF3A1B91B2721990B2FFF783FFE3
:1022A0007A1991B2321B90B2FFF77DFF3A1B91B2BF
:1022B000721B90B2FFF777FF7A1B91B2321B90B27C
:1022C000FFF771FF3A1991B2721990B2FFF76BFFE5
:1022D0007A1B91B2321990B2FFF765FF7A1991B269
:1022E000321990B2FFF75FFF3A1991B2721B90B2A8
:1022F000FFF759FF641CB9F1000F03DAA000801D3D
:10230000814404E0601B80000A3081446D1E7A190C
:1023100091B2321990B2FFF746FFAC42B4DDBDE88E
:10232000F083F0B504460D4616461F462B4632464E
:1023300029462046FFF745FF3B46224629462046D0
:10234000FFF73FFF3B46324639462046FFF739FF4D
:102350003B46324629463046FFF733FFF0BD0000CA
:1023600054000020560000200000026050000020B1
:1023700010B5024600210F4B13E0107801EB011459
:1023800013F81440A04209D1507801EB011403EB7B
:1023900044046478A04201D1084610BD481C81B2B3
:1023A00000BF01EB011013F810008028E5DC00BF2E
:1023B0000020F2E74A9B000870B52A25FF48446BCD
:1023C00001E0FE48446B14F0450FFAD014F0040FFE
:1023D00005D00325042003F03DFA284670BD14F013
:1023E000010F05D00125012003F034FA2846F5E756
:1023F00040F2FF5003F02EFA2846EFE72DE9F041B6
:1024000006460F464FF02A08EC48456B01E0EB48C2
:10241000456B15F0450FFAD015F0040F07D04FF0BB
:102420000308042003F016FA4046BDE8F08115F0D9
:10243000010F06D04FF00108012003F00BFA4046CF
:10244000F3E703F0ADF9B04203D04FF01008404677
:10245000EBE740F2FF5003F0FDF9002003F0A4F990
:10246000044614F4604F03D1200C38804046DCE76A
:1024700014F4005F01D01320D7E714F4804F01D08B
:102480001020D2E714F4004F01D00F20CDE74046D2
:10249000CBE738B52A240120009003F052F910B997
:1024A0002524204638BDC6480068042829D00020CD
:1024B000C449086002204860C02088600020C860CD
:1024C0004FF480600861084603F050F9FFF774FF8D
:1024D00004462A2C01D02046E4E7002003F064F9EA
:1024E000B9490860042003F05FF9B7494860082043
:1024F00003F05AF9B44988600C2003F055F9B24949
:10250000C860AF48006858B1AD480068012807D0DE
:10251000AB480068062803D0A9480068022817D1F4
:102520000020A849086003204860402088600020FF
:10253000C8604FF480600861084603F017F96946E7
:102540000320FFF75BFF04462A2C01D02046A9E7B1
:102550009B48006804282FD0BDF800009B49086004
:10256000BDF8000000049749086009204860C020B9
:1025700088600020C8604FF480600861084603F05E
:10258000F5F8FFF719FF04462A2C01D0204689E709
:10259000002003F009F98E490860042003F004F9D3
:1025A0008B494860082003F0FFF8894988600C20B7
:1025B00003F0FAF88649C8602A24204672E770B50D
:1025C0002A257E48446B01E07C48446B14F0450F9B
:1025D000FAD014F0040F05D00325042003F03AF9D3
:1025E000284670BD40F2FF5003F034F92846F8E762
:1025F0002DE9F04106462A277048456B01E06F48F7
:10260000456B15F0450FFAD015F0040F06D00327DF
:10261000042003F01FF93846BDE8F08115F0010FE2
:1026200005D00127012003F015F93846F4E703F03F
:10263000B7F8B04202D010273846EDE740F2FF501D
:1026400003F008F9002003F0AFF8044661480442A3
:1026500001D13846E0E714F0004F01D01C20DBE741
:1026600014F0804F01D00920D6E714F0005F01D0AC
:102670000A20D1E714F0805F01D00B20CCE714F0E2
:10268000006F01D00C20C7E714F0806F01D00D203F
:10269000C2E714F0807F01D00E20BDE714F4000FD4
:1026A00001D00F20B8E714F4800F01D01020B3E759
:1026B00014F4001F01D01120AEE714F4801F01D0E4
:1026C0001220A9E714F4002F01D01320A4E714F47A
:1026D000802F01D014209FE714F4003F01D0152073
:1026E0009AE714F4803F01D0162095E714F4004FC8
:1026F00001D0172090E714F4804F01D018208BE709
:1027000014F4005F01D0192086E714F0080F01D0FF
:102710001A2081E738467FE770B52A2642F2107505
:102720002648446B02E06D1E2448446B14F0450FAC
:1027300001D1002DF7D115B114F0040F05D00326F7
:10274000042003F087F8304670BD14F0400F05D028
:102750002A26402003F07EF83046F5E73046F3E7BE
:1027600070B52A2542F2107400E0641E24B1802066
:1027700003F066F80028F8D014B90325284670BD88
:1027800040F2FF5003F066F82846F8E72DE9F041E3
:102790002A240026002500274FF00008B2200E4909
:1027A00008750020086048608860C86008610846B5
:1027B00002F09CFF032002F0B9FF0FE0008001400F
:1027C0005C000020CC310020A431002060000020FB
:1027D0009431002008E0FFFDB4310020012002F018
:1027E000A2FF0020FF49086048608860C8604FF47D
:1027F00080600861084602F0B9FFFFF7B1FF0446A8
:102800002A2C02D02046BDE8F0814FF4D570F5495E
:10281000086008204860402088600020C8604FF4AD
:1028200080600861084602F0A1FFFFF775FF0446CB
:102830002A2C05D10120EC4908604FF0804812E0B5
:102840000020E84908603720486040208860002068
:10285000C8604FF480600861084602F087FF3720A7
:10286000FFF7C6FE04460020DE49086037204860B6
:10287000402088600020C8604FF4806008610846EE
:1028800002F074FF3720FFF7B3FE04462A2C4CD128
:1028900038E00020D3490860372048604020886035
:1028A0000020C8604FF480600861084602F05EFFB7
:1028B0003720FFF79DFE04462A2C01D02046A2E7D0
:1028C000CA4848EA0000C7490860292048604020FB
:1028D00088600020C8604FF480600861084602F0FC
:1028E00045FFFFF76CFE04462A2C01D020468AE7FC
:1028F000002002F059FF0646012080EAD67080F0E1
:1029000001076D1C1FB94FF6FF708542C1D34FF60A
:10291000FF70854202D31B24204674E706F08040F6
:10292000060002D00220B049086020466BE708B5D7
:102930000121302002F085F94FF4F850ADF8000085
:1029400003208DF8020018208DF803006946A8487E
:1029500001F0D4FE0420ADF800006946A54801F05E
:10296000CDFE08BD10B52A24FFF7E1FF0121880242
:1029700002F05AF90121022002F056F902F0A8FEF5
:10298000FFF704FF04462A2C01D0204610BDFFF7B4
:1029900080FD04462A2C01D02046F7E70120964905
:1029A00008750020086048608860C86008610846B3
:1029B00002F09CFE2046E9E710B52A24002002F030
:1029C000B5FE204610BD30B501462A200022864BB8
:1029D0001B6881F84E30894B1B68A1F84C30884B3E
:1029E0001B681A0E93090B70C2F383034B7002F03D
:1029F00003038B70824B1B68C3F30742CA70804B82
:102A00001B68C3F307220A717D4B1B68DAB24A7157
:102A10007B4B5B681A0E1301CB80794B5B68C3F369
:102A20000742CB8843EA1213CB8002F00F030B72EC
:102A3000734B5B68C3F30722D3094B72C2F3801355
:102A40008B72C2F34013CB72C2F300130B730023DB
:102A50004B73654B1B681BB1634B1B68012B3DD14E
:102A600093071B0D0B61664B5B68DAB20B6943EA97
:102A700082030B61624B9B681A0E0B6943EA921347
:102A80000B61C2F3C2030B7502F007034B755C4B7D
:102A90009B68C3F3074253098B75C2F38203CB755E
:102AA00093075B0F0B76564B9B68C3F307220B7E95
:102AB00043EAD2130B760B695B1C4B640C7E4B6CA8
:102AC000A41C0125A5406B434B640C7A0123A34051
:102AD0008B64D1E9113463434B6422E0424B1B68A1
:102AE000022B1ED1464B5B68DAB293069B0A0B6140
:102AF000434B9B681A0E0B6943EA02230B61404B60
:102B00009B68C3F307420B6913430B613C4B9B6803
:102B1000C3F307220B695B1CDB044B644FF40073A7
:102B20008B64C2F3801301F8193F93065B0E4B7060
:102B3000334B9B68DAB24B7843EAD2134B7002F006
:102B40007F038B702E4BDB681A0ED309CB70C2F358
:102B500041130B71C2F382034B7193071B0F8B71EF
:102B6000274BDB68C3F307428B7943EA92138B71DF
:102B7000C2F34013CB7100230B7202F001034B72BE
:102B80001F4BDB68C3F30722D3098B72C2F3801398
:102B9000CB72C2F340130B73C2F300134B73C2F337
:102BA00081038B7302F00303CB73154BDB68DAB23E
:102BB00053080B7401234B74124B1B681A0ECA7412
:102BC000A1F119010F4B1B68C3F307424FEA02231F
:102BD000CB850C4B1B68C3F30722CB8D43EA020362
:102BE000CB8511E0CC3100205C000020000010807B
:102BF0000010014000140140B431002060000020AA
:102C000094310020A4310020F84B1B68DAB24FEA5F
:102C100002640C63F54B5B684FEA13620B6B43EA8B
:102C200002440C63F14B5B68C3F307420B6B43EA4E
:102C300002240C63ED4B5B68C3F307220B6B43EA82
:102C400002030B63E94B5B68DAB24FF034035A546A
:102C5000E64B9B684FEA13624FF035035A54E34B3F
:102C60009B68C3F307424FEA02648C63DF4B9B68A7
:102C7000C3F307228B6B43EA02448C63DB4B9B68F4
:102C8000DAB28B6B43EA02248C63D84BDB684FEAE1
:102C900013628B6B43EA02038B63D44BDB68C3F391
:102CA00007424FF03C035B5C43EA12134FF03C04D5
:102CB00063544FEA02734FEA1353CB87CB4BDB6865
:102CC000C3F30722CB8F43EA0203CB87C74BDB68F2
:102CD000DAB24FEA52034FF0400463544FF001045C
:102CE0004FF041035C5430BD2DE9FC4107460D46D1
:102CF00000262A240020009001900820BC4908608A
:102D000010204860402088600020C8604FF4806038
:102D10000861084602F02AFD1020FFF769FC04460E
:102D20002A2C02D02046BDE8FC81B248006800048D
:102D3000AF49086037204860402088600020C860A4
:102D40004FF480600861084602F010FD3720FFF75D
:102D50004FFC04462A2C01D02046E4E7A648A749A8
:102D6000086008204860302088600220C860002089
:102D7000086101204861084602F01DFD00209C49C1
:102D8000086033204860402088600020C8604FF40D
:102D900080600861084602F0E9FC3320FFF728FC58
:102DA00004462A2C01D02046BDE709E04FF400106C
:102DB00002F046FD20B102F020FD4DF82600761C01
:102DC0008F48406B40F22A610842EFD0082002F0A1
:102DD00037FD28B1082002F03DFD04242046A2E77B
:102DE000022002F02DFD28B1022002F033FD022462
:102DF000204698E7202002F023FD28B1202002F091
:102E000029FD062420468EE74FF4007002F018FDDD
:102E100030B14FF4007002F01DFD0724204682E718
:102E200040F2FF5002F016FD00980006009901F4F0
:102E30007F4140EA0120009901F47F0140EA11201E
:102E4000009940EA1160686001980006019901F458
:102E50007F4140EA0120019901F47F0140EA1120FD
:102E6000019940EA1160286020465CE77CB5054680
:102E70002A2400200090019002F096FC10F0007FC0
:102E800002D00E2420467CBD69465A48006880B2B4
:102E9000FFF72AFF04462A2C01D02046F3E7012D34
:102EA00037D1019810F4802F30D0524800680004C8
:102EB0004F49086037204860402088600020C86083
:102EC000A8020861084602F051FC3720FFF790FB8A
:102ED00004462A2C01D02046D5E702204449086048
:102EE00006204860402088600020C8604FF4806061
:102EF0000861084602F03AFC0620FFF779FB044619
:102F00002A2C01D02046BEE72046BCE725242046D7
:102F1000B9E7019810F4803F31D0364800680004CA
:102F20003349086037204860402088600020C8602E
:102F30004FF480600861084602F018FC3720FFF764
:102F400057FB04462A2C01D020469CE70020284944
:102F5000086006204860402088600020C8604FF468
:102F600080600861084602F001FC0620FFF740FB84
:102F700004462A2C01D0204685E7204683E72524F5
:102F8000204680E770B504462A251E4800680328BD
:102F900002D12725284670BD1A48006838B1194863
:102FA0000068012803D017480068022840D1B4F512
:102FB000805F02D127252846EDE7B4F5006F25D1C3
:102FC0000120FFF753FF05462A2D31D101200E497C
:102FD000087500200860486088604FF40060C86091
:102FE00000200861084602F081FB21E0A4310020A6
:102FF000CC31002060000020FFFF0F00E0310020F6
:10300000008001405C000020B43100200020FFF768
:103010002DFF05462A2D0BD10120FF490875002000
:10302000086048608860C8600861084602F05EFB7E
:103030002846B0E701462A2019B1012901D002290A
:1030400002D1F64A116000E02620704770B50446B0
:103050002A25F34804600720F14948604020886031
:103060000020C8604FF480600861084602F07EFBD3
:103070000720FFF7BDFA0546284670BD30B58BB076
:1030800005460C46E74802F002FD0021E64802F042
:10309000D5FCE6480090019500200290A00803901E
:1030A000002004908020059080000690800007900A
:1030B000002008904FF40050099000200A906946C3
:1030C000D94802F090FC0121D74802F0B7FC0BB0C0
:1030D00030BD0146002002E04910421CD0B2012957
:1030E000FAD170472DE9F04707460D4614464FF0D8
:1030F0002A084FF000092E464FF0000A25B94FF07C
:1031000026084046BDE8F0872A20C94908700020FB
:10311000C8490860C8490860C848C9490860002013
:1031200048608860C86008614861084602F043FB57
:10313000002002F018FB002002F036FB10F0007FA8
:1031400003D04FF00E084046DCE7BE480068022876
:1031500001D104027F0A002C21DDB4F5006F1EDCD2
:10316000601E20421BD12046FFF7B3FF8246AC48C9
:1031700004601020AA494860402088600020C86090
:103180004FF480600861084602F0F0FA1020FFF763
:103190002FFA8046B8F12A0F05D04046B2E74FF02B
:1031A00026084046AEE7A548A549086008464460A1
:1031B0004FEA0A1088600220C860002008610120E0
:1031C0004861084602F0F7FA9B48046000209E49D7
:1031D00008609E4805609248076011209049486049
:1031E000402088600020C8604FF480600861084675
:1031F00002F0BCFA1120FFF7FBF98046B8F12A0F64
:1032000001D040467EE785480068022857D111E08A
:103210004FF4004002F014FB60B14FF0000905E0EC
:1032200002F0EBFA46F8290009F10109B9F1080F9B
:10323000F6D320367D488038406B40F22A61084240
:10324000E6D0082002F0FCFA30B1082002F002FBC0
:103250004FF00408404655E7022002F0F1FA30B181
:10326000022002F0F7FA4FF0020840464AE7202019
:1032700002F0E6FA30B1202002F0ECFA4FF0060836
:1032800040463FE74FF4007002F0DAFA38B14FF4ED
:10329000007002F0DFFA4FF00708404632E703E023
:1032A00002F0ABFA3060361D4FF4001002F0C8FA9D
:1032B0000028F5D140F2FF5002F0CCFA2CE057483C
:1032C0000068012813D1012148F22A3002F03EFAA9
:1032D00000BF5848006818B9554800782A28F8D027
:1032E000534800782A2817D0514800780AE74B48FD
:1032F000006888B9012140F22A3002F027FA012043
:1033000002F031FA21462846FFF7B8FE00BF5048C8
:1033100002F0ACFB0028FAD04046F3E62DE9F05F5E
:1033200081460E4614461D464FF02A084FF0000A0B
:1033300037464FF0000B26B94FF026084046BDE84F
:10334000F09F2A203A49087000203A4908603A491B
:1033500008603A483A490860002048608860C860C0
:1033600008614861084602F026FA002002F0FBF9E5
:10337000002002F019FA10F0007F03D04FF00E0881
:103380004046DCE72F480068022802D104024FEAD9
:103390005929002C21DDB4F5006F1EDC601E20428F
:1033A0001BD12046FFF795FE83461D480460102080
:1033B0001B494860402088600020C8604FF480604E
:1033C0000861084602F0D2F91020FFF711F9804693
:1033D000B8F12A0F05D04046B1E74FF02608404625
:1033E000ADE7012D7ED905FB04F0B0F1007F03D3DA
:1033F0004FF026084046A2E705FB04F00E4908609E
:10340000012011490860114806600C480C49086009
:1034100005FB04F048601DE0B4310020640000208A
:10342000CC31002000F000104404024080800140B4
:10343000700000207400002068000020FFFF0F00D3
:10344000E03100205C0000206C00002080000020A3
:10345000002000104FEA0B1088600220C860002096
:10346000086101204861084602F0A5F9FF48C0F84C
:1034700000901220FD494860402088600020C8600C
:103480004FF480600861084602F070F91220FFF7DF
:10349000AFF88046B8F12A0F01D040464FE7F44814
:1034A000006802287BD111E04FF4004002F0C8F917
:1034B00060B14FF0000A05E002F09FF947F82A00DA
:1034C0000AF1010ABAF1080FF6D32037E948406B38
:1034D00040F22A310842E7D0082002F0B1F940B1A9
:1034E000082000E09EE002F0B5F94FF004084046E5
:1034F00025E7022002F0A4F930B1022002F0AAF977
:103500004FF0020840461AE7202002F099F930B146
:10351000202002F09FF94FF0060840460FE74FF4D5
:10352000007002F08DF938B14FF4007002F092F99A
:103530004FF00708404602E703E002F05EF938600A
:103540003F1D4FF4001002F07BF90028F5D14FF435
:10355000807002F075F918B3C748006838B1C648E2
:103560000068022803D0C4480068012818D1002050
:10357000BE4908600C204860402088600020C86078
:103580004FF480600861084602F0F0F80C20FFF765
:103590002FF88046B8F12A0F02D04046CFE604E06B
:1035A00040F2FF5002F056F93CE0B14800680128B3
:1035B00013D1012148F22A3002F0C8F800BFAF4809
:1035C000006818B9AE4800782A28F8D0AC480078CE
:1035D0002A2827D0AA480078B1E6A548006808BB89
:1035E000012140F22A3002F0B1F8012002F0BBF8CC
:1035F00005FB04F13046FFF741FD00BFA14802F092
:1036000035FA0028FAD000BF9C48006818B99C48D9
:1036100000782A28F8D09A4800782A2802D09848BA
:1036200000788CE640468AE62DE9F04106462A27D6
:10363000002400259448006800048C4908600D208F
:103640004860402088600020C8604FF480600861B6
:10365000084602F08BF88748456B01E08548456BCA
:1036600015F0450FFAD015F0040F06D003270420FB
:1036700002F0F0F83846BDE8F08115F0010F05D0F2
:103680000127012002F0E6F83846F4E702F088F856
:1036900005460D2D02D010273846ECE740F2FF50CA
:1036A00002F0D8F8002002F07FF80446C4F343206B
:1036B00030707648044201D13846DCE714F0004F00
:1036C00001D01C20D7E714F0804F01D00920D2E7A9
:1036D00014F0005F01D00A20CDE714F0805F01D024
:1036E0000B20C8E714F0006F01D00C20C3E714F0E2
:1036F000806F01D00D20BEE714F0807F01D00E2036
:10370000B9E714F4000F01D00F20B4E714F4800FD0
:1037100001D01020AFE714F4001F01D01120AAE758
:1037200014F4801F01D01220A5E714F4002F01D05B
:103730001320A0E714F4802F01D014209BE714F489
:10374000003F01D0152096E714F4803F01D01620E9
:1037500091E714F4004F01D017208CE714F4804F48
:1037600001D0182087E714F4005F01D0192082E708
:1037700014F0080F01D01A207DE738467BE730B5FA
:103780008BB005460C46424802F081F900214148C1
:1037900002F054F9374880300090019510200290D3
:1037A000A0080390002004908020059080000690DF
:1037B00080000790002008904FF4005009900020EE
:1037C0000A906946334802F00EF90121314802F0AF
:1037D00035F90BB030BD2DE9FF5F82460F46144628
:1037E0002A250020039002908346002601908046FF
:1037F0000090B94627B92625284604B0BDE8F09FB9
:103800002A201F49087000201C49086022490860CE
:10381000224823490860002048608860C860086129
:103820004861084601F0C7FF002001F09CFF00201E
:1038300001F0BAFF10F0007F02D00E252846DCE729
:103840000D480068022802D104024FEA5A2A002CCF
:103850003DDDB4F5006F3ADC601E204237D12046D2
:10386000FFF737FC0390014804601BE0CC310020D7
:1038700064000020008001405C00002074000020F3
:1038800070000020002000106000002008E0FFFD14
:1038900000F000104404024068000020FFFF0F0009
:1038A000E03100201020FF4948604020886000205F
:1038B000C8604FF480600861084601F057FF10208F
:1038C000FEF796FE05462A2D04D0284695E72625C4
:1038D000284692E7F44800680004F24908600D2089
:1038E0004860402088600020C8604FF48060086114
:1038F000084601F03BFF0D20FEF77AFE05462A2D13
:1039000001D0284679E7002001F04EFF0190DFF852
:103910009CB31EE0ABF1010BE34800680004E149F1
:1039200008600D204860402088600020C8604FF487
:1039300080600861084601F019FF0D20FEF758FE6F
:1039400005462A2D01D0284657E7002001F02CFF1C
:103950000190019810F4807F02D1BBF1000FD9D102
:10396000BBF1000F01D1292047E7CE48C0F800A0E5
:103970001820CC494860402088600020C8604FF47F
:1039800080600861084601F0F1FE1820FEF730FE65
:1039900005462A2D01D028462FE7C548046000209F
:1039A000C4490860C4480760C048C4490860084664
:1039B00044600398000188600020C860086101200D
:1039C0004861084601F0F7FEBD48006802286AD148
:1039D00039E04FF4804001F033FFA0B3B4480068F1
:1039E000801B202820D2B2480068801B10F0030FF3
:1039F00004D1AF480068801B800804E0AC48006830
:103A0000801B8008401C00904FF0000808E0D9F8A7
:103A1000000001F0F5FE08F1010809F10409361D66
:103A2000009880450FD2F2E74FF0000805E059F802
:103A3000280001F0E5FE08F10108B8F1080FF6D3FF
:103A400009F1200920369F48406B40F21A61084274
:103A5000BFD0082001F0F4FE28B1082001F0FAFEE2
:103A600004252846C9E6022001F0EAFE28B102201A
:103A700001F0F0FE02252846BFE6102001F0E0FE2E
:103A800028B1102001F0E6FE05252846B5E64FF4E2
:103A9000007001F0D5FEF0B34FF4007001F0DAFED3
:103AA00007252846A9E686480068012813D1012188
:103AB00044F21A3001F04AFE00BF8348006818B98A
:103AC000824800782A28F8D0804800782A2828D010
:103AD0007E48007891E67A480068E0B9012140F21A
:103AE0001A3001F033FE21463846FFF748FE012028
:103AF00001F039FE00BF764801F0B8FF0028FAD087
:103B000000BF7148006818B9704800782A28F8D0BA
:103B10006E48007800E004E02A2802D06B48007864
:103B20006BE640F2FF5001F095FE02A8FFF77CFD26
:103B3000054603E002A8FFF777FD05462A2D07D1C9
:103B40009DF808000728F5D09DF808000628F1D058
:103B5000284652E62DE9FE4F8346884614461E4607
:103B60002A25002002900190002781460090C2463D
:103B7000B8F1000F03D126252846BDE8FE8F2A2084
:103B80005249087000205049086049490860474878
:103B90004A490860002048608860C8600861486140
:103BA000084601F008FE002001F0DDFD002001F0D4
:103BB000FBFD10F0007F02D00E252846DDE74548CA
:103BC0000068022802D104024FEA5B2B002C20DDA2
:103BD000B4F5006F1DDC601E20421AD12046FFF7AD
:103BE00078FA02902F48046010202E494860402047
:103BF00088600020C8604FF480600861084601F0CA
:103C0000B5FD1020FEF7F4FC05462A2D04D0284609
:103C1000B3E726252846B0E7234800680004214979
:103C200008600D204860402088600020C8604FF484
:103C300080600861084601F099FD0D20FEF7D8FC70
:103C400005462A2D01D0284697E7012E75D906FB97
:103C500004F0B0F1007F02D3262528468DE71D48E9
:103C6000006838B11B480068012803D01948006873
:103C700002284AD10C48006800040A49086037202D
:103C80004860402088600020C8604FF48060086170
:103C9000084601F06BFD3720FEF7AAFC05462A2DE9
:103CA0001CD019E0CC31002060000020FFFF0F0085
:103CB000680000206C0000207C000020E031002023
:103CC000640000200080014074000020700000208B
:103CD000002000105C00002028464EE7FA480660ED
:103CE0001720F9494860402088600020C8604FF4E0
:103CF00080600861084601F039FD1720FEF778FC66
:103D000005462A2D01D0284637E7EF48C0F800B015
:103D10001920ED494860402088600020C8604FF4B9
:103D200080600861084601F021FD1920FEF760FC63
:103D300005462A2D02D028461FE7CAE006FB04F0FC
:103D4000E24908600120E2490860E248C0F80080CA
:103D5000E148E249086006FB04F04860029800016F
:103D600088600020C860086101204861084601F0B1
:103D700022FDDB48006802287ED139E04FF4804004
:103D800001F05EFDA0B3D1480068C01B20280FD30E
:103D90004FF0000905E05AF8290001F031FD09F162
:103DA0000109B9F1080FF6D30AF1200A20371FE004
:103DB000C6480068C01B10F0030F04D1C348006858
:103DC000C01B800804E0C1480068C01B8008401C7C
:103DD00000904FF0000908E0DAF8000001F010FD53
:103DE00009F101090AF1040A3F1D00988145F3D346
:103DF000BC48406B40F21A310842BFD0082001F0A5
:103E00001FFD28B1082001F025FD04252846B4E651
:103E1000022001F015FD28B1022001F01BFD022552
:103E20002846AAE6102001F00BFD28B1102001F071
:103E300011FD05252846A0E64FF4007001F000FDB5
:103E400030B14FF4007001F005FD0725284694E6D7
:103E50004FF4807001F0F4FCD8B3A348006838B187
:103E6000A1480068012803D09F480068022856D165
:103E700000209549086000E013E00C2048604020D5
:103E800088600020C8604FF480600861084601F037
:103E90006DFC0C20FEF7ACFB05462A2D3FD02846D2
:103EA0006BE68F480068012814D1012144F21A30D2
:103EB00001F04CFC00BF8D48006818B98C480078B0
:103EC0002A28F8D08A4800782A2828D088480078FC
:103ED00053E624E08248006808BB012140F21A3012
:103EE00001F034FC012001F03EFC06FB04F14046E9
:103EF000FFF745FC00BF7F4801F0B8FD0028FAD06D
:103F000000BF7A48006818B9794800782A28F8D0A4
:103F1000774800782A2802D0754800782DE640F2CC
:103F2000FF5001F097FC01A8FFF77EFB054603E078
:103F300001A8FFF779FB05462A2D07D19DF804005B
:103F40000728F5D09DF804000628F1D0284614E68D
:103F50006448406B10F4405F01D00120704700209E
:103F6000FCE710B52A240020574908600C2048605F
:103F7000402088600020C8604FF4806008610846D7
:103F800001F0F4FB0C20FEF733FB0446204610BD85
:103F90002DE9F84305460E462A2400274FF0000875
:103FA0000020009054484068202111EA105F03D19E
:103FB00025242046BDE8F8834A484068C0B2801CEA
:103FC0004E49B1FBF0F8002001F0EEFB10F0007F4D
:103FD00002D00E242046EDE743480068022801D1B4
:103FE0006D0A760A4048006838B13F4800680128E9
:103FF00003D03D48006802282DD1334805602020B9
:1040000031494860402088600020C8604FF48060DB
:104010000861084601F0AAFB2020FEF7E9FA0446F1
:104020002A2C01D02046C5E72748066021202649D2
:104030004860402088600020C8604FF480600861BC
:10404000084601F093FB2120FEF7D2FA04462A2C01
:1040500001D02046AEE700201B49086026204860BA
:10406000402088600020C8604FF4806008610846E6
:1040700001F07CFB2620FEF7BBFA04462A2C01D077
:10408000204697E7002700E07F1C4745FCD36846A1
:10409000FFF7CAFA044603E06846FFF7C5FA04468C
:1040A0002A2C07D19DF800000728F5D09DF80000C4
:1040B0000628F1D020467DE770B504462A2514B9BC
:1040C0002625284670BD1BE0CC310020680000206A
:1040D0006C0000207C000020FFFF0F00E03100207A
:1040E00064000020008001405C000020740000207B
:1040F00070000020002000109431002040190100C1
:10410000FF4800680004FF4908600D204860402017
:1041100088600020C8604FF480600861084601F0A4
:1041200025FB0D20FEF764FA05462A2D01D028460E
:1041300070BD002001F038FB20602846F8E770B51C
:1041400004462A260025002001F02EFB10F0007FF7
:1041500002D00E26304670BD4020EA49086010208B
:104160004860402088600020C8604FF4806008618B
:10417000084601F0FBFA1020FEF73AFA06462A2E0E
:1041800001D03046E7E7DE4800680004DD490860FA
:1041900037204860402088600020C8604FF480606D
:1041A0000861084601F0E2FA3720FEF721FA0646D8
:1041B0002A2E01D03046CEE7D348D44908604020AB
:1041C0004860602088600220C860002008610120EB
:1041D0004861084601F0EFFA0020CA4908600D2046
:1041E0004860402088600020C8604FF4806008610B
:1041F000084601F0BBFA0D20FEF7FAF906462A2E12
:1042000001D03046A7E70EE04FF4004001F018FB64
:1042100048B1002504E001F0F0FA44F825006D1CD7
:10422000082DF8D32034BA48406B40F22A61084286
:10423000EAD0082001F004FB28B1082001F00AFBB5
:104240000426304687E7022001F0FAFA28B102205E
:1042500001F000FB022630467DE7202001F0F0FA55
:1042600028B1202001F0F6FA0626304673E74FF415
:10427000007001F0E5FA30B14FF4007001F0EAFA95
:104280000726304667E703E001F0B7FA2060241DF7
:104290004FF4001001F0D4FA0028F5D140F2FF509D
:1042A00001F0D8FA403C002515E054F8250000063E
:1042B00054F8251001F47F4140EA012054F82510FC
:1042C00001F47F0140EA112054F8251040EA116002
:1042D00044F825006D1C102DE7D330463BE770B540
:1042E000002400258B480068012866D1C00301F036
:1042F000B4FAA8B100BF06E001F07FFA8649096868
:1043000041F82400641C082CF6D383480068203050
:1043100081490860814800682030804908604CE08D
:104320004FF4804001F099FA88B37D4800687B49DA
:104330000968401A20282BD2794800687749096813
:10434000401A10F0030F06D17548006873490968D8
:10435000401A800806E07248006870490968401AEF
:104360008008401C054600240FE06E490968086873
:1043700001F046FA641C6B480068001D694908603A
:1043800066480068001D65490860AC42EDD314E042
:10439000002406E06349096851F8240001F030FA6E
:1043A000641C082CF6D35F48006820305D49086023
:1043B0005A4800682030594908604FF4807001F075
:1043C0004CFAD8B353480068D0B10EE001F015FAAA
:1043D00051490968086050480068001D4E4908604E
:1043E0004E480068001D4D4908604FF4001001F070
:1043F00027FA28B149480068494909688842E5D345
:1044000049480068012804D1FFF7ABFD474908700F
:1044100002E02A20454908704FF4807001F027FA25
:1044200000214CF23A3001F091F901204049086036
:1044300000203A4908603D48007870BDFFE702203F
:1044400001F00BFA70B1022001F011FA00214CF2D8
:104450003A3001F07BF900203049086002203349EE
:104460000870EAE7082001F0F8F970B1082001F0BF
:10447000FEF900214CF23A3001F068F9002027499A
:104480000860042029490870D7E7202001F0E5F9E9
:1044900070B1202001F0EBF900214CF23A3001F02C
:1044A00055F900201D490860062020490870C4E71E
:1044B000102001F0D2F970B1102001F0D8F90021DC
:1044C0004CF23A3001F042F900201449086005200E
:1044D00016490870B1E74FF4007001F0BEF948B317
:1044E0004FF4007001F0C3F900214CF23A3001F0B2
:1044F0002DF900200949086007200C4908709CE745
:1045000060000020CC310020FFFF0F00E0310020D0
:10451000008001406400002080000020780000201E
:10452000680000207C0000206C000020700000204B
:1045300074000020FFE72A207FE710B5FFF7CFFEC9
:1045400010BD000036490143364A1160704770B50E
:10455000002100230F22C4784CB3324C246804F4A9
:10456000E064C4F5E0644FEA1421C1F1040322FAC7
:1045700001F2447804FA03F1847804EA020444EA7C
:1045800001014FEA0111284C0678A155047804F086
:104590001F054FF0010404FA05F405784FEA65158C
:1045A0004FF0E02606EB8505C5F8004109E00478E8
:1045B00004F01F050124AC401C4D0678761145F827
:1045C000264070BD1A4A0A4002431A4B1A607047CF
:1045D00041B1194A126842EA00024FF0E023C3F8E1
:1045E000102D07E0144A126822EA00024FF0E0237F
:1045F000C3F8102D7047042808D14FF0E021096955
:1046000041F004014FF0E022116107E04FF0E0219A
:10461000096921F004014FF0E022116170470000A8
:104620000000FA050CED00E000E400E080E100E0AD
:1046300080FFFF1F08ED00E010ED00E010B504461C
:10464000C248844208D10121042000F014FB00215B
:10465000042000F010FB46E0BD48844208D101214F
:10466000082000F008FB0021082000F004FB3AE0DD
:10467000B848844208D10121102000F0FCFA002142
:10468000102000F0F8FA2EE0B348844208D101214E
:10469000202000F0F0FA0021202000F0ECFA22E0C7
:1046A000AE48844208D10121402000F0E4FA002104
:1046B000402000F0E0FA16E0A948844208D1012128
:1046C000802000F0D8FA0021802000F0D4FA0AE01F
:1046D000A448844207D10121801500F0CCFA0021C2
:1046E000A01500F0C8FA10BD10B50121084600F071
:1046F000C2FA0021012000F0BEFA10BD2DE9F04100
:10470000024600250026002000230024002791F8FF
:1047100003C00CF00F0591F803C01CF0100F03D07C
:1047200091F802C04CEA0505B1F800C01CF0FF0F7B
:1047300031D0146800202BE04FF0010C0CFA00F38C
:10474000B1F800C00CEA03069E4220D183004FF06E
:104750000F0C0CFA03F7BC4305FA03FC4CEA040403
:1047600091F803C0BCF1280F06D14FF0010C0CFAF0
:1047700000FCC2F814C00AE091F803C0BCF1480F75
:1047800005D14FF0010C0CFA00FCC2F810C0401C1F
:104790000828D1D31460B1F800C0BCF1FF0F34DD9C
:1047A000546800202EE000F1080C4FF0010808FAD0
:1047B0000CF3B1F800C00CEA03069E4221D183003D
:1047C0004FF00F0C0CFA03F7BC4305FA03FC4CEA5C
:1047D000040491F803C0BCF1280F05D100F1080CC6
:1047E00008FA0CF8C2F8148091F803C0BCF1480F25
:1047F00007D100F1080C4FF0010808FA0CF8C2F8D4
:104800001080401C0828CED35460BDE8F0814FF6DC
:10481000FF710180022181700421C170704702463E
:10482000002093680B4201D0012000E00020704777
:104830000146886880B2704702460020D3680B4268
:1048400001D0012000E0002070470146C86880B216
:10485000704701617047416170470AB1016100E032
:1048600041617047C16070474FF480320A438261F2
:1048700081618261826982697047024600203A4BF9
:1048800018684FF68073184040EA02100843364B10
:10489000186070473549C8617047F0B50A46002373
:1048A000002400210025304E7168C0F3034583B217
:1048B00000F44016B6F5401F08D121F070612A4E71
:1048C000766826F07066284F7E6012E000F480164D
:1048D000B6F5801F06D1032606FA05F4A14341F080
:1048E000706106E0460D360103FA06F6B14341F069
:1048F000706122B1460D360103FA06F631431A4EB5
:104900007160F0BD30B500228B071C0F0F2303FA36
:1049100004F2154B08338C1053F824309343124C97
:1049200008348D1044F8253023468C1053F8243079
:104930008C07240F00FA04F423430B4C08348D1029
:1049400044F8253030BD0A4908607047000801402E
:10495000000C01400010014000140140001801400B
:10496000001C0140002001400000014000002042E6
:10497000DC002042DB48006840F00100D9490860B3
:1049800008464068D8490840D6494860084600684B
:10499000D6490840D34908600846006820F48020C2
:1049A00008600846406820F4FE0048604FF41F008D
:1049B00088607047CB49096821F48031C94A116089
:1049C0001146096821F480211160B0F5803F03D0C1
:1049D000B0F5802F0ED106E0C249096841F480315C
:1049E000C04A116007E0BF49096841F4A021BD4AEF
:1049F000116000E000BF00BF704710B50146002203
:104A0000002300204A11012A02D1B64C236806E097
:104A1000022A02D1B34C236A01E0B24C636A01F06E
:104A20001F02012494401C4201D0012000E000201C
:104A300010BD70B500240025002600BF3120FFF70F
:104A4000DCFF0646641CB4F5A06F01D0002EF5D043
:104A50003120FFF7D2FF08B1012500E000252846EC
:104A600070BD014600209F4A106820F0F80040EA1F
:104A7000C100106070479E490860704702460020E0
:104A8000984B586820F47C1042EA01031843954B78
:104A90005860704796490866704701460020914A61
:104AA000506820F003000843506070478D4840680C
:104AB00000F00C007047014600208A4A506820F040
:104AC000F00008435060704701460020854A506856
:104AD00020F4E06008435060704701460020814A9E
:104AE000506820F4605040EAC1005060704729B11E
:104AF0007C4A527A02437B4B5A7206E0794A527AD8
:104B0000C343DBB21A40774B5A7270477949086049
:104B1000704701460020734A506820F44040084323
:104B2000506070470021744A11706E4A82F820105C
:104B3000012802D0042808D103E001216E4A117037
:104B400004E005216C4A117000E000BF00BF70470F
:104B50006A49086070476349096A0143614A116202
:104B6000704767490860704730B500210022002473
:104B700000235C4D6D6805F00C0121B1042905D0BE
:104B8000082923D105E05F4D056022E05D4D0560F9
:104B90001FE0544D6D6805F47012524D6D6805F4B8
:104BA0008034022505EB92421CB9574D55430560F0
:104BB0000BE04C4D6D6815F4003F03D0524D55434A
:104BC000056002E04F4D5543056002E04D4D056024
:104BD00000BF00BF434D6D6805F0F00109094B4D62
:104BE0006B5C0568DD4045603E4D6D6805F4E06135
:104BF000090A464D6B5C4568DD408560394D6D683E
:104C000005F46051C90A414D6B5C4568DD40C560E3
:104C1000344D6D6805F44041890B3D4D6B5CC568B2
:104C2000B5FBF3F5056130BD29B12E4A5269024347
:104C30002C4B5A6104E02B4A52698243294B5A613A
:104C4000704729B1274A92690243264B9A6104E0D2
:104C5000244A92698243234B9A61704729B1214AC1
:104C6000D26902431F4BDA6104E01E4AD2698243D3
:104C70001C4BDA61704729B11A4AD2680243194BBA
:104C8000DA6004E0174AD2688243164BDA60704754
:104C900029B1144A12690243124B1A6104E0114A05
:104CA000126982430F4B1A6170471A4908607047B6
:104CB0000F49C86470470B49C87170470948406A7A
:104CC00040F0807007494862704701460020054A5D
:104CD00092680A4201D0012000E00020704701499B
:104CE00088727047001002400000FFF8FFFFF6FED8
:104CF00000004242D800424220100240800442425A
:104D00003C04424200127A0000093D008400002069
:104D1000940000204004424230B943F2DB014FF0DE
:104D2000204242F8201005E043F2D2014FF0204229
:104D300042F820106FF07042411C4FF0204343F8BE
:104D4000212011461A4602EB8002C2F80411704776
:104D500010280AD118214FF02042116640215166D7
:104D60004FF0FC319166D16610E01821FC4A1160C9
:104D70004FF040014FF02042C2F884104FF0FC3158
:104D8000F84A11604FF02042C2F88C10704718208A
:104D9000F54908604FF000004FF02041C1F8A40031
:104DA0004FF0FC30F149086001F10401086001F1A5
:104DB000040108607047D0E901121143C268114331
:104DC000026911434269114382691143C269114367
:104DD000026A1143426A1143826A1143C26A114353
:104DE0004FF02043026843F822108168082908D157
:104DF0001A46016852F8211041F04001026843F858
:104E00002210016B0968026B526841EA0211026BC1
:104E1000926841EA0221026BD26841EA0241026BC8
:104E2000126941EA0251026B526941EA0261026B66
:104E3000926911430268521C4FF0204343F822103C
:104E4000816AB1F5804F1AD1416B0968426B526893
:104E500041EA0211426B926841EA0221426B1269F7
:104E600041EA0251426B526941EA0261426B926926
:104E70001143026803EB8202C2F8041108E06FF0EC
:104E800070414FF02043026803EB8202C2F8041124
:104E9000704730B5002100220023446844F0080424
:104EA00085682C43C5682C4305692C43456944EA51
:104EB0004524856944EA4531C4692468C5696D683B
:104EC00044EA0524C569AD6844EA0544C569ED684E
:104ED00044EA0562046A2468056A6D6844EA0524A8
:104EE000056AAD6844EA0544056AED6844EA05636D
:104EF0000468102C05D14FF020442166A266E366B9
:104F000007E0974C21604FF02044C4F88820984C6B
:104F1000236030BD016841F01001426841EA42213E
:104F2000826841EA4231904A1160C1680968C268EA
:104F3000526841EA0221C268926841EA0241C268AD
:104F4000D26841EA0261894A11600169096802690F
:104F5000526841EA02210269926841EA024102690B
:104F6000D26841EA0261834A116041690968426975
:104F7000526841EA02214269926841EA024142696B
:104F8000D26841EA02614FF02042C2F8B010704787
:104F9000002101600221416000218160C160016146
:104FA00041618161C1614FF48051016249004162F8
:104FB00000218162C1620F21026B1160026B51609E
:104FC000FF21026B91600F21026BD160026B1161B6
:104FD000026B51610021026B91610F21426B1160E4
:104FE000426B5160FF21426B91600F21426BD16097
:104FF000426B1161426B51610021426B91617047BC
:1050000010210160002141608160C1600161416146
:105010008161FC21C2691160C2695160C2699160FD
:10502000C269D160026A1160026A5160026A9160CD
:10503000026AD16070470021016041608160FC21FB
:10504000C2681160C2685160C2689160C268D16074
:105050000269116002695160026991600269D16060
:105060004269116042695160426991604269D16050
:10507000704751B14FF0204252F8202042F0010217
:105080004FF0204343F8202009E04FF0204252F82F
:105090002020394B1A404FF0204343F8202070471E
:1050A00099B1102808D14FF02042126E42F004024C
:1050B0004FF020431A661DE0294A126842F00402AC
:1050C0004FF02043C3F8802014E0102809D14FF09E
:1050D0002042126E284BDB1E1A404FF020431A6606
:1050E00008E01F4A1268254B02EA03024FF02043F2
:1050F000C3F88020704740B11B49096841F00401A2
:105100004FF02042C2F8A01008E0174909681B4A76
:1051100001EA02014FF02042C2F8A010704799B195
:10512000102808D14FF02042126E42F040024FF09A
:1051300020431A662DE00A4A126842F040024FF0FE
:105140002043C3F8802024E0102819D14FF02042DA
:10515000126E0A4B3C3B1A404FF020431A6618E08F
:10516000800000A0880000A0A00000A0A80000A06F
:105170008C0000A0AC0000A0FEFF0F00FBFF0F00A2
:10518000644A1268644B02EA03024FF02043C3F8FA
:105190008020704701460020102903D14FF02042A3
:1051A000506F01E05D4A1068704710B5F2B11028E9
:1051B00007D14FF020435B6E0B434FF020446366F2
:1051C00032E0B0F5807F08D1554B1B6843EA0103FC
:1051D0004FF02044C4F8843026E0524B1B6843EA69
:1051E00001034FF02044C4F8A4301DE0102807D17B
:1051F0004FF020435B6E8B434FF02044636613E017
:10520000B0F5807F08D1464B1B6823EA01034FF0BD
:105210002044C4F8843007E0424B1B6823EA0103B2
:105220004FF02044C4F8A43010BD10B50246002051
:105230000023102A03D14FF02044636E07E0B2F53B
:10524000807F02D1364C236801E0364C23680B4244
:1052500001D0012000E0002010BD102807D14FF040
:105260002042526E8A434FF020435A6613E0B0F555
:10527000807F08D12A4A126822EA01024FF02043B7
:10528000C3F8842007E0274A126822EA01024FF09F
:105290002043C3F8A420704770B5024600200023C5
:1052A00000240025102A03D14FF02046736E07E03A
:1052B000B2F5807F02D11A4E336801E0194E33688F
:1052C00003EA010403EAD10514B10DB1012000E0A5
:1052D000002070BD102808D14FF02042526E22EA03
:1052E000D1024FF020435A6613E0B0F5807F08D119
:1052F0000B4A126822EAD1024FF02043C3F88420FF
:1053000007E0084A126822EAD1024FF02043C3F8AE
:10531000A4207047800000A0BFFF0F00940000A0F1
:10532000840000A0A40000A010B50446E348844215
:1053300009D101218803FFF79EFC00214FF4804032
:10534000FFF799FC32E0DE48844209D1012148048C
:10535000FFF79EFC00214FF40030FFF799FC25E099
:10536000D848844209D101218804FFF791FC00212B
:105370004FF48020FFF78CFC18E0D348844209D119
:105380000121C804FFF784FC00214FF40020FFF73F
:105390007FFC0BE0CD48844208D101210805FFF7CE
:1053A00077FC00214FF48010FFF772FC10BD2DE94F
:1053B000F04786B005460E460024A24600BF00BF57
:1053C0000027B08900B100BF2F462C8A4CF6FF7031
:1053D0000440F08804432C82AC894EF6F31004405C
:1053E000B08831890843718908430443AC81AC8A91
:1053F0004FF6FF400440B0890443AC8201A8FFF798
:10540000B3FBAE48874202D1DDF810A001E0DDF821
:105410000CA00AEBCA0000EB0A1031688900B0FB4F
:10542000F1F86420B8FBF0F004012009642101FBCD
:105430001089322000EB0910B0FBF1F000F00F00F2
:1054400004432C8106B0BDE8F0874FF4165101608B
:1054500000218180C18001810C2141810021818155
:10546000704710B502460020108A4FF2FF03184023
:105470000B884C8823438C882343CC8823431843D0
:10548000108210BD0021018041808180C180704761
:1054900021B1828942F40052828104E082894DF672
:1054A000FF731A4082817047F0B50346002400263E
:1054B00000250020A1F510676A3F00D100BF184603
:1054C000C1F3421401F01F06012707FA06F5012C6B
:1054D00001D10C3004E0022C01D1103000E0143076
:1054E0001AB107682F43076002E00768AF430760FF
:1054F000F0BD10B51AB1838A0B43838204E0838A1E
:10550000CC43A4B22340838210BD028A4FF6F073CD
:105510001A400282028A0A430282704782894FF24D
:10552000FF731A40828182890A438281704721B1C8
:10553000828942F00202828104E082894FF6FD7383
:105540001A4082817047028A4FF6DF731A40028246
:10555000028A0A430282704721B1028A42F48042E1
:10556000028204E0028A4BF6FF731A4002827047FF
:10557000C1F308028280704701468888C0F30800A2
:105580007047818941F0010181817047028BD2B25D
:105590000283028B42EA012202837047028B02F4EB
:1055A0007F420283028B0A430283704721B1828AC1
:1055B00042F02002828204E0828A4FF6DF731A40B2
:1055C0008282704721B1828A42F01002828204E016
:1055D000828A4FF6EF731A408282704721B1828A25
:1055E00042F00802828204E0828A4FF6F7731A4082
:1055F00082827047828A4FF6FB731A408282828AC7
:105600000A438282704721B1828A42F0020282827A
:1056100004E0828A4FF6FD731A4082827047024688
:105620000020B1F5007F00D100BF13880B4201D0EC
:10563000012000E00020704701F40072B2F5007F05
:1056400000D100BFCA430280704770B502460024F3
:10565000002300250020A1F510666A3E00D100BF9E
:10566000C1F3421501F01F03012606FA03F3012DD1
:1056700002D19689334006E0022D02D1168A3340CA
:1056800001E0968A33400C12012606FA04F41688CB
:10569000344013B10CB1012000E0002070BD10B502
:1056A00000220023A1F510646A3C00D100BF0A1259
:1056B00001249440A3B2DC43048010BD00380140B3
:1056C0000044004000480040004C004000500040B2
:1056D00000206849086048608860C8604862886245
:1056E000C862654888630020C86370470021614A2A
:1056F000516847F6FF629143027D83681A4343680D
:105700001A43C3681A4303681A4303691A431143CF
:10571000584A516070470021017501604160816005
:10572000C160016170475549086070475149096877
:1057300021F003014F4A11601146096801431160CD
:1057400070474C48006800F00300704729B1494A8F
:10575000D26B0243474BDA6304E0464AD26B824382
:10576000444BDA6370474649086070470021414B5B
:1057700002689A601A46D1686FF30A01D0E90123E2
:105780001A43C3681A4303691A431143394AD16063
:1057900070470021016041608160C1600161704714
:1057A00034480069C0B270470146002231481430C5
:1057B0000A181068704700212E4B02685A6242682E
:1057C0009A621A46D16A21F0F701D0E902231A43FE
:1057D00003691A4343691A431143264AD162704749
:1057E0004FF0FF310160002141608160C1600161C3
:1057F000416170471F48006B70472248006870473E
:105800002049086070471B48806C70471E4908603B
:1058100070471E49086070471D49086070471D4960
:10582000086070471C49086070471C490860704751
:10583000012181431A4A116070471A490860704774
:10584000014600200B4A526B0A4201D0012000E0C1
:105850000020704707498863704701460020054AC9
:10586000526B0A4201D0012000E00020704701493C
:105870008863704700800140FF07C000A0003042ED
:105880008C05304280800140A0053042A4053042A2
:10589000A8053042AC053042AC013042B001304284
:1058A000B4013042B8013042016821F001010160C9
:1058B0000021016041608160C1608649884208D151
:1058C00084490839496841F00F01824A083A516019
:1058D00088E080491431884208D17E4908394968F6
:1058E00041F0F0017B4A083A51607BE07949283168
:1058F000884208D177490839496841F47061754A8E
:10590000083A51606EE073493C31884208D17149D0
:105910000839496841F470416E4A083A516061E0C3
:105920006C495031884208D16A490839496841F4C4
:105930007021684A083A516054E0664964318842EF
:1059400008D164490839496841F47001614A083A4C
:10595000516047E05F497831884208D15D49083994
:10596000496841F070615B4A083A51603AE05A492F
:10597000884208D1A0F10401096841F00F01574A9B
:10598000C2F804142EE054491431884207D1544916
:10599000096841F0F001514AC2F8041422E04E496E
:1059A0002831884207D14E49096841F470614B4A59
:1059B000C2F8041416E048493C31884207D14849EE
:1059C000096841F47041454AC2F804140AE04249AA
:1059D0005031884206D14249096841F470213F4A5A
:1059E000C2F80414704710B50022026847F6F0733D
:1059F0009A430C6A8B6823430C6923434C69234305
:105A00008C692343CC6923434C6A23438C6A234328
:105A10001A430260CB6843600B6883604B68C360C5
:105A200010BD0021016041608160C1600161416180
:105A30008161C161016241628162704721B1026886
:105A400042F00102026003E0026822F001020260FB
:105A500070471AB103680B43036002E003688B438D
:105A6000036070470146486880B2704701460020D5
:105A7000002211F0805F02D01A4B1A6801E0174B28
:105A80001A680A4201D0012000E00020704710F09F
:105A9000805F02D01249086001E0104948607047F9
:105AA00001460020002211F0805F02D00D4B1A68E1
:105AB00001E00A4B1A680A4201D0012000E00020F0
:105AC000704710F0805F02D00549086001E003498B
:105AD000486070470800024008040240000002408D
